:020000040000FA
:1000000018030010B1020000B90200004301000013
:1000100001010000170100002D0100000000000098
:10002000000000000000000000000000C30200000B
:10003000C502000000000000C7020000C902000065
:10004000CB020000CB020000CB020000CB0200007C
:10005000CB020000CB020000CB020000CB0200006C
:10006000CB020000CB020000CB020000CB0200005C
:10007000CB02000000000000CB020000CB02000019
:10008000CB020000CB020000E50D0000ED0D0000EA
:10009000FD0D00000D0E0000CB020000CB020000A1
:1000A000CB020000CB020000CB020000CB0200001C
:1000B000CB020000CB020000CB020000CB0200000C
:1000C000CB020000CB020000CB020000CB020000FC
:1000D000CB020000CB020000D5020000CB020000E2
:1000E000CB020000DFF80CD000F0ECFF0048004726
:1000F000970E00001803001040BA7047C0BA70474E
:1001000001BE1EF0040F0CBFEFF30880EFF309806F
:10011000816900F00EBD01BE1EF0040F0CBFEFF3AD
:100120000880EFF30980816900F003BD01BE1EF075
:10013000040F0CBFEFF30880EFF30980816900F032
:10014000F8BC01BE1EF0040F0CBFEFF30880EFF304
:100150000980816900F0EDBC70B506460D4636B1E8
:10016000012E12D0022E1ED0032E3ED129E044488B
:10017000006820F01F0405F01F0040EA0404414815
:10018000C0F8044100F006FA31E03F48006820F072
:100190001F0405F01F0040EA04043A48C0F8A841D3
:1001A00000F0F8F923E03948006820F0010405F078
:1001B000010040EA04043348C0F8004100F0EAF9C5
:1001C00015E03348006820F01F0405F01F0040EAE6
:1001D00004042C48D0F8080105F01F0140EA010092
:1001E0002B49086000F0D6F901E000BFFEE700BF30
:1001F00070BD014631B1012907D0022908D0032979
:100200000CD108E023480068704723480068FBE7EA
:1002100022480068F8E722480068F5E700BFFEE7DB
:10022000012907D11F4A126842EA0002154BC3F8A0
:10023000C42007E031B91B4A126822EA0002114BC0
:10024000C3F8C420704700201749086030BF7047CA
:1002500004201649086000201349086030BF704729
:1002600004201249086001200F49086030BF704720
:1002700004200E49086003200B49086030BF704716
:1002800004C10F4000C00F40A8C10F4000C10F4083
:1002900008C10F4004000010080000100C000010FE
:1002A00010000010C4C00F40C0C00F4010ED00E0AF
:1002B0000648804706480047FEE7FEE7FEE7FEE700
:1002C000FEE7FEE7FEE7FEE7FEE7FEE72D0800009B
:1002D000E50000007047202A04DB203A00FA02F112
:1002E000002070479140C2F1200320FA03F3194324
:1002F000904070477047000000000000FFFFFFFFC4
:100300000F202C4908604FF000002B49C1F848012C
:100310002A4908607047704701290AD1274A1268A4
:100320000B4603FA00F342EA0302234BC3F84C21C5
:100330000BE051B9214A12684FF0010303FA00F3B0
:1003400022EA03021C4BC3F84C21704701290AD151
:100350001B4A12680B4603FA00F342EA0302164BEB
:10036000C3F848210BE051B9154A12684FF0010358
:1003700003FA00F322EA03020F4BC3F84821704747
:1003800010B5044600200B49086061782078FFF71B
:10039000DDFFA1782078FFF7BFFF10BD0549096890
:1003A0004FF0010202FA00F241EA0201024AC2F8E9
:1003B0004011704740C10F4000C00F404CC10F407A
:1003C00048C10F400146080B102802D30E2202EB51
:1003D000D000704730B58BB004460D4632200190F6
:1003E0000294039506A901A8694A126890470698E5
:1003F000C0B20BB030BD2DE9F0418AB004460D46C5
:1004000016462046FFF7DEFF804641464046FFF78E
:10041000E1FF07461FB138460AB0BDE8F08133203E
:1004200000900194029503960020FFF7E2FE4FF43E
:100430007A71B0FBF1F1049105A96846544A12683B
:1004400090470598C0B2E7E770B58AB004460E46FB
:1004500031462046FFF7BEFF054615B128460AB0D3
:1004600070BD34200090019402960020FFF7C1FE79
:100470004FF47A71B0FBF1F1039105A96846444A43
:10048000126890470598C0B2E9E7F0B58BB0064610
:100490000F4614461D46352001900296039706A983
:1004A00001A83B4A126890470698082805D10CB16C
:1004B000079820600DB1089828600698C0B20BB06C
:1004C000F0BD10B58AB004463620009005A96846F4
:1004D0002F4A12689047059810B90CB10698206011
:1004E0000598C0B20AB010BD30B58BB004460D46B9
:1004F0003720019006A901A8254A1268904706985E
:1005000030B914B10798000A20700DB1079828700F
:100510000698C0B20BB030BD10B58AB004463A2080
:10052000009005A968461A4A12689047059860B974
:100530005CB1002000BF05E006A951F8201044F886
:100540002010401C0428F7D300BF0598C0B20AB0A1
:1005500010BD70B58AB004460E461546382000908E
:1005600001940296039505A96846094A12689047C6
:100570000598C0B20AB070BD00B58BB039200190AB
:1005800006A901A8024A126890470BB000BD0000FE
:100590000000001030B5D848006810F4807F6BD19F
:1005A000D648006810F0010F2CD1D348006810F035
:1005B0001F0F01D1002006E0CF48006800F01F00A7
:1005C000CF49B1FBF0F0CF490860CF48006810F088
:1005D0001F0F01D1002006E0CB48006800F01F008B
:1005E000C749B1FBF0F0C9490860C948006800F08C
:1005F000010000F10100C3490968B1FBF0F0C549F1
:100600000860B6E0C448006810F0400F07D1002031
:10061000BC490860BD490860BE490860A9E0B64809
:10062000006810F01F0F01D1002006E0B2480068FA
:1006300000F01F00B249B1FBF0F0B2490860B248C7
:10064000006810F01F0F01D1002006E0AE480068DE
:1006500000F01F00AA49B1FBF0F0AC490860AC48BB
:10066000006800F0010000F10100A6490968B1FB33
:10067000F0F0A84908607CE0A848006810F4807F8A
:1006800007D100209F490860A0490860A14908607F
:100690006FE09A48006810F0010F2ED19F4C24683B
:1006A00004F01F0404F101009D4CD4F8044104F04F
:1006B0001F01954C246804F01F02994CD4F80041A6
:1006C00004F0010404F1010309B9002403E08C4C97
:1006D0004443B4FBF1F48B4D2C600AB9002403E0D1
:1006E000874C4443B4FBF2F4884D2C60854C24685D
:1006F000B4FBF3F4874D2C603BE08748006810F0B2
:10070000400F07D100207F49086080490860814977
:1007100008602EE0814C246804F01F0404F10100FD
:100720007F4CD4F8044104F01F01774C246804F096
:100730001F027B4CD4F8004104F0010404F10103D2
:1007400009B9002403E06E4C4443B4FBF1F46D4D51
:100750002C600AB9002403E0694C4443B4FBF2F472
:100760006A4D2C60674C2468B4FBF3F4694D2C602F
:1007700000BF6C48006810F4807F31D06948006881
:1007800010F01F0004D0042806D0062823D104E06E
:1007900000206549086022E000BF604A126802F04C
:1007A0001F0202F101005E4AD2F8082102F01F0187
:1007B000524A126812F0010F06D0514A4243B2FB6E
:1007C000F1F2594B1A6005E04D4A4243B2FBF1F297
:1007D000554B1A6003E000205349086000BF24E035
:1007E0005048006810F4007F1CD04448006810F0A6
:1007F000010F0BD04D48006800F01F0000F1010010
:100800003F4900FB01F0484908600EE0434800689A
:1008100000F01F0000F10100394900FB01F04249DE
:10082000086002E000204049086030BD00B521208A
:100830003949086000BF3848006810F0400FFAD00E
:1008400001202E4908604FF009003549C1F88400A5
:100850004FF00100364908604FF0AA0035490860A2
:100860004FF05500086000BF2C48006810F4806FFE
:10087000FAD02F20304908604FF001002849C1F814
:10088000A0004FF0AA002D4908604FF05500244900
:10089000C1F8AC0000BF2548006810F4806FFAD0A2
:1008A00040F20110144908604FF401701C49C1F86E
:1008B00008014FF00000164908604FF0020012498D
:1008C000086048F208001E4908604FF0050014490E
:1008D000C1F8C8010846D0F8B00140F0030019493A
:1008E000086045F23A000E4908604FF000001649D2
:1008F0000860FFF74FFE00BD04C10F400CC10F4060
:10090000001BB70004000010A8C10F400800001031
:1009100000C10F400C000010A0C10F4088C00F4064
:1009200000C00F4008C10F4010000010A8C00F40C9
:1009300080C00F408CC00F40A4C00F40ACC00F401F
:10094000C4C00F40B0C10F4008ED00E01BE00178CB
:100950008F4A126812F0807F13D08E4A126812F00C
:10096000010F0ED08B4A803A126812F0010F08D0A6
:1009700000BF4FF060421268002AFAD04FF0604387
:10098000197000BF401C01780029E0D1704710B5F4
:10099000044681A0FFF7DAFF240C14F4007F02D094
:1009A00081A0FFF7D3FF10BD10B5044682A0FFF76A
:1009B000CDFFC4F3072410BD10B5044681A18548BE
:1009C000226800F0A1FB8348FFF7C0FF82A18148A5
:1009D000626800F099FB7F48FFF7B8FF82A17D486D
:1009E000A26800F091FB7B48FFF7B0FF82A1794835
:1009F000E26800F089FB7748FFF7A8FF82A17548FD
:100A0000226900F081FB7348FFF7A0FF82A17148C3
:100A1000626900F079FB6F48FFF798FF82A16D488B
:100A2000A26900F071FB6B48FFF790FF82A1694853
:100A3000E26900F069FB6748FFF788FF10BD10B559
:100A4000044681A0FFF782FFE4B214F0200F02D029
:100A500084A0FFF77BFF14F0100F02D091A0FFF7E6
:100A600075FF14F0080F02D09CA0FFF76FFF14F081
:100A7000020F02D0A8A0FFF769FF14F0010F02D007
:100A8000ABA0FFF763FF14F0800F09D04048C838CF
:100A90000268B7A1BC4800F037FBBB48FFF756FF20
:100AA00010BD044601BEB9A0FFF750FF3848D0384A
:100AB0000268BCA1C04800F027FBBF48FFF746FF13
:100AC0003348D038006810F0804F2DD0BBA0FFF71E
:100AD0003DFF2F48D4380268BDA1B74800F014FB91
:100AE000B548FFF733FF2A48D4380068000C0004EB
:100AF00004D02749D4390868FFF749FF2448D4387F
:100B0000006810F47F4F04D02149D4390868FFF7FA
:100B10004BFF1F48D438006810F0FF0F04D01C4969
:100B2000D4390868FFF78BFF2046FFF745FF00BF69
:100B3000FEE79CB001681B91009141681A910191F8
:100B4000816819910291C168189103910169179107
:100B50000491416916910591816915910691C169C8
:100B6000149107910A49D4390968139108910849E9
:100B7000D0390968129109910549C839096811915C
:100B80000A910349C439096810910B9100BFFEE72F
:100B9000FCED00E0800E00E0557361676520666142
:100BA000756C743A200000004469766964652062BF
:100BB00079207A65726F0A00427573206661756CE0
:100BC000743A2000723020203D203078253038786B
:100BD0000A00000024000010723120203D203078EF
:100BE000253038780A000000723220203D2030780D
:100BF000253038780A000000723320203D203078FC
:100C0000253038780A000000723132203D203078DB
:100C1000253038780A0000006C7220203D203078A2
:100C2000253038780A000000706320203D2030789D
:100C3000253038780A000000707372203D2030782B
:100C4000253038780A0000004D656D6F7279204DAF
:100C5000616E6167656D656E74206661756C743A6E
:100C60002000000041204D656D4D616E616765207B
:100C70006661756C74206F6363757272656420645D
:100C80007572696E67204650206C617A79207374A2
:100C900061746520707265736572766174696F6ED8
:100CA0000A000000412064657269766564204D6524
:100CB0006D4D616E616765206661756C74206F6350
:100CC000637572726564206F6E20657863657074F9
:100CD000696F6E20656E7472790A00004120646548
:100CE0007269766564204D656D4D616E6167652042
:100CF0006661756C74206F63637572726564206FD2
:100D00006E20657863657074696F6E2072657475A6
:100D1000726E2E0A000000004461746120616363FA
:100D20006573732076696F6C6174696F6E2E0A004B
:100D30004D5055206F722045786563757465204E5F
:100D4000657665722028584E292064656661756C49
:100D500074206D656D6F7279206D617020616363C1
:100D60006573732076696F6C6174696F6E0A000039
:100D70005343422D3E4D4D464152203D2030782573
:100D80003038780A0000000074000010496E2048D6
:100D9000617264204661756C742048616E646C6594
:100DA000720A00005343422D3E48465352203D20D4
:100DB0003078253038780A00C4000010466F72631E
:100DC00065642048617264204661756C740A000095
:100DD0005343422D3E43465352203D203078253028
:100DE00038780A0001200F49086070470D480068F4
:100DF00040F002000C49C1F8400170470948006802
:100E000040F004000849C1F84001704705480068F7
:100E100040F008000449C1F84001704710B5FFF7E1
:100E20006FFA10BD40C10F4000C00F4038B50446F6
:100E30006846FFF746FB38BD10B5044625A000F014
:100E400053F9284928A000F04FF92F48026801689B
:100E50002EA000F049F9374802683748016837A0EA
:100E600000F042F93EA141A000F03EF910BD10B5DE
:100E7000454846490844244908601A4800F088F863
:100E80002D490860084601681F48006800F0B0F866
:100E90002849086010BD0020704708B50021009166
:100EA00002E00099491C009164214143009A91425B
:100EB000F7D808BD18B504460020009005E064206E
:100EC000FFF7EBFF0098401C00900098A042F6D37B
:100ED00018BD70472020426F6F746C6F616465723B
:100EE0003A0A0000000000002020202020202020BE
:100EF0002020202020456E7472793A202020203056
:100F00007825780A0000000014000010202020201E
:100F100020202020202020202053697A653A20209C
:100F20002020203078257820627974657320282568
:100F300064290A001C000010180000102020202046
:100F4000202020202020202020536563746F72739E
:100F50003A2020256420746F2025640A00000000D8
:100F60004175672031352032303134002020202077
:100F700020202020202020202056657273696F6E6B
:100F80003A202025730A0000F41500002400000018
:100F9000F0B5044629490025A60A002312E0721B79
:100FA00048780F787843904205D94878B2FBF0F042
:100FB00003441846F0BD0878034448780F7800FBD6
:100FC0000755C91C08780028E9D1401EF2E70246FF
:100FD0001A49134607E00878984201D948787047C3
:100FE00008781B1AC91C08780028F4D1401EF6E7BF
:100FF0002DE9F041064688461EB94FF0FF30BDE8A6
:10100000F081444600270AE02046FFF7E0FF05464E
:10101000681C01D1401EF2E707EB8527641CB7422C
:10102000F2D3601EEBE70549002201E00878024494
:1010300008780028FAD1501E70470000C61500003D
:101040002DE9F05F0546002092469B4688460646FD
:10105000814640241BE0284641464746224600F090
:1010600020F853465A46C01A914110D311461846EB
:101070002246FFF730F92D1A67EB01084F4622464A
:1010800001200021FFF727F917EB00094E41201E30
:10109000A4F10104DFDC484631462A464346BDE858
:1010A000F09F202A04DB203A21FA02F00021704749
:1010B00021FA02F3D040C2F12002914008431946C0
:1010C00070470000064C074D06E0E06840F0010361
:1010D00094E8070098471034AC42F6D3FFF706F8BF
:1010E000D4150000F41500000FB4054B10B503A98A
:1010F000044A029800F02AF810BC5DF814FB0000C6
:10110000B5150000200000100FB4084B10B504A95D
:1011100002AA039800F01AF8044602A9002000F081
:1011200044FA204610BC5DF814FB0000AB1500002B
:1011300002E008C8121F08C1002AFAD17047002037
:1011400001E001C1121F002AFBD170472DE9FF4FBA
:101150008DB00F4605460026DEE1252874D1002417
:101160006D1CF149A246A14601222B78203B02FAD0
:1011700003F0084202D004436D1CF6E728782A28C1
:1011800010D06FF02F022878A0F13001092915D86E
:101190000AEB8A0102EB410144F0020400EB010A70
:1011A0006D1CF0E757F804ABBAF1000F03DA44F412
:1011B0000054CAF1000A44F002046D1C28782E285D
:1011C00017D115F8010F44F004042A280ED06FF04F
:1011D0002F022878A0F1300109290AD809EB8901EA
:1011E00002EB410100EB01096D1CF2E757F8049B8B
:1011F0006D1C28786C280FD006DC4C2817D0682886
:101200000DD06A2814D104E0742810D07A280FD1A8
:101210000DE044F400140AE044F4801401E044F4C6
:1012200040146978814202D16D1C04F580146D1C54
:101230002A786E2A20D00DDC632A33D005DC002A00
:101240006FD0582A12D1A2E011E0642A6AD0692A2C
:101250000CD167E0732A2FD004DC6F2A6FD0702A7C
:1012600004D199E0752A6BD0782A6AD01046DDE95E
:101270000F129047761C4EE1C4F30250022806D0AC
:1012800003280AD0042801CF0AD0066043E101CF29
:101290004FEAE671C0E900613DE101CF06803AE125
:1012A000067038E117F8040B8DF8000000208DF867
:1012B0000100EB46012003E057F804BB4FF0FF307C
:1012C00061074FF0000102D40DE008F101018846EA
:1012D00049450FDA8045F8DB1BF808100029F4D1E6
:1012E00008E008F1010188468142FADB1BF808108A
:1012F0000029F6D1DDE90F23AAEB0800814621463B
:1013000000F03BF9304400EB080604E0DDE90F1281
:101310001BF8010B9047B8F10108F7D22146484667
:10132000F4E0FDE00A21C4F302534FF0000B0891F2
:10133000022B07D001CFC117032B09D00AE034E0FC
:1013400023E024E0FF1D27F00707F7E8020105E08E
:1013500000B2C117042B01D140B2C117002907DA2E
:101360004FF0000CD0EB0C006CEB01012D2302E0E0
:10137000230504D52B238DF82430012303E0E30754
:1013800001D02023F7E7984650E00A210EE0102014
:101390004FF0000B08900CE010214FF0000B44F0D0
:1013A00004044FF00809089103E008214FF0000BF6
:1013B0000891C4F30253022B04D001CF0021032B68
:1013C00006D006E0FF1D27F00707F7E8020103E05B
:1013D00080B2042B00D1C0B24FF00008230725D5FE
:1013E000702A2AD0DDF820C08CF0100C5CEA0B0CBF
:1013F00009D150EA010306D030238DF824308DF84E
:10140000252002239846DDF820C08CF0080C5CEA09
:101410000B0C0BD150EA010301D1630706D5302331
:101420008DF824304FF00108A9F10109582A09D09C
:101430003EA20B9208AA0A9211E040238DF82430B4
:101440000123DFE73EA2F4E75B46089AFFF7F8FDC9
:101450000B9B9B5C0A9AA2F101020A92137050EA5C
:101460000102F1D10A98ADEB000000F1200B6007FA
:1014700002D524F4803401E04FF00109D94502DDA2
:10148000A9EB0B0000E0002000EB0B0141440890A9
:10149000AAEB010AE00306D4DDE90F2321465046FA
:1014A00000F06BF80644002008E009A911F80900D3
:1014B000DDE90F129047761C09F101008146404595
:1014C000F3DBE0030CD5DDE90F232146504600F0A5
:1014D00054F8064404E0DDE90F1230209047761CF2
:1014E0000899481E08900029F5DC08E00A980A9936
:1014F0000078491C0A91DDE90F129047761CBBF178
:101500000001ABF1010BF1DC21465046DDE90F2370
:1015100000F020F806446D1C287800287FF41DAEEA
:1015200011B03046BDE8F08F092801003031323368
:10153000343536373839616263646566000000000F
:1015400030313233343536373839414243444546F9
:10155000000000002DE9F041044600251E46174614
:10156000880405D406E039462020B04705F101057E
:10157000641EF8D52846BDE8F0812DE9F041044607
:1015800000251E469046C80301D5302700E02027DD
:10159000880405D506E041463846B04705F1010507
:1015A000641EF8D52846BDE8F0810A68531C0B601C
:1015B0001070704738B504468DF800006946032066
:1015C000ABBE204638BD0804000804080E201000F9
:1015D00000000000F41500000000001024000000CE
:1015E000301100001816000024000010F402000062
:1015F0003E110000F11FFF1F000E27070087930315
:10160000000E2707006CDC02000000000000000054
:081610000000000000000000D2
:04000005000000E512
:00000001FF
