:020000040000FA
:1000000060420010F900000001010000030100003F
:1000100005010000070100000901000000000000C8
:100020000000000000000000000000000B010000C4
:100030000D0100000000000003790000353B0000C6
:100040001301000013010000130100001301000060
:100050001301000013010000130100001301000050
:100060001301000013010000130100001301000040
:100070001301000000000000130100001301000044
:1000800013010000816F00000D7700002177000050
:100090003D770000597700001301000013010000B4
:1000A0001301000013010000130100001301000000
:1000B00013010000D31D0000130100001301000014
:1000C00013010000130100001301000013010000E0
:1000D00013010000130100009B0200001301000047
:1000E00013010000DFF80CD007F0AAFB004800471E
:1000F000750200006042001006488047064800472D
:10010000FEE7FEE7FEE7FEE7FEE7FEE7FEE7FEE7C7
:10011000FEE7FEE799050000E500000070B5064621
:100120000D4636B1012E12D0022E1ED0032E3ED126
:1001300029E04448006820F01F0405F01F0040EA51
:1001400004044148C0F8044100F0DAF831E03F48C7
:10015000006820F01F0405F01F0040EA04043A483C
:10016000C0F8A84100F0CCF823E03948006820F03E
:10017000010405F0010040EA04043348C0F80041DE
:1001800000F0BEF815E03348006820F01F0405F0C9
:100190001F0040EA04042C48D0F8080105F01F01B4
:1001A00040EA01002B49086000F0AAF801E000BF16
:1001B000FEE700BF70BD014631B1012907D0022919
:1001C00008D003290CD108E0234800687047234871
:1001D0000068FBE722480068F8E722480068F5E776
:1001E00000BFFEE7012907D11F4A126842EA000258
:1001F000154BC3F8C42007E031B91B4A126822EA44
:100200000002114BC3F8C420704700201749086052
:1002100030BF704704201649086000201349086069
:1002200030BF704704201249086001200F49086060
:1002300030BF704704200E49086003200B49086056
:1002400030BF704704C10F4000C00F40A8C10F402D
:1002500000C10F4008C10F40000000100400001052
:10026000080000100C000010C4C00F40C0C00F40B8
:1002700010ED00E010B54FF4403006490860054825
:1002800010380068002003491039086006F032FC7D
:10029000002010BD24ED00E0704710B501220521BB
:1002A000002000F007FD18B12021002000F02DFDF6
:1002B00010BD40EA01039B0703D009E008C9121FE3
:1002C00008C0042AFAD203E011F8013B00F8013B10
:1002D000521EF9D27047D2B201E000F8012B491E3C
:1002E000FBD270470022F6E710B513460A460446D3
:1002F0001946FFF7F0FF204610BD7047FFFFFFFFD4
:1003000030B5D848006810F4807F6BD1D6480068BB
:1003100010F0010F2CD1D348006810F01F0F01D14D
:10032000002006E0CF48006800F01F00CF49B1FB75
:10033000F0F0CF490860CF48006810F01F0F01D1DE
:10034000002006E0CB48006800F01F00C749B1FB61
:10035000F0F0C9490860C948006800F0010000F1E8
:100360000100C3490968B1FBF0F0C5490860B6E077
:10037000C448006810F0400F07D10020BC49086055
:10038000BD490860BE490860A9E0B648006810F0A1
:100390001F0F01D1002006E0B248006800F01F00E6
:1003A000B249B1FBF0F0B2490860B248006810F001
:1003B0001F0F01D1002006E0AE48006800F01F00CA
:1003C000AA49B1FBF0F0AC490860AC48006800F005
:1003D000010000F10100A6490968B1FBF0F0A8494D
:1003E00008607CE0A848006810F4807F07D10020F6
:1003F0009F490860A0490860A14908606FE09A48D9
:10040000006810F0010F2ED19F4C246804F01F04E7
:1004100004F101009D4CD4F8044104F01F01954CF7
:10042000246804F01F02994CD4F8004104F0010440
:1004300004F1010309B9002403E08C4C4443B4FBEC
:10044000F1F48B4D2C600AB9002403E0874C44433F
:10045000B4FBF2F4884D2C60854C2468B4FBF3F4B3
:10046000874D2C603BE08748006810F0400F07D1B3
:1004700000207F49086080490860814908602EE0BB
:10048000814C246804F01F0404F101007F4CD4F86F
:10049000044104F01F01774C246804F01F027B4CD8
:1004A000D4F8004104F0010404F1010309B9002467
:1004B00003E06E4C4443B4FBF1F46D4D2C600AB97B
:1004C000002403E0694C4443B4FBF2F46A4D2C6011
:1004D000674C2468B4FBF3F4694D2C6000BF6C4892
:1004E000006810F4807F31D06948006810F01F0068
:1004F00004D0042806D0062823D104E00020654952
:10050000086022E000BF604A126802F01F0202F198
:1005100001005E4AD2F8082102F01F01524A126817
:1005200012F0010F06D0514A4243B2FBF1F2594B8F
:100530001A6005E04D4A4243B2FBF1F2554B1A6096
:1005400003E000205349086000BF24E050480068E1
:1005500010F4007F1CD04448006810F0010F0BD04D
:100560004D48006800F01F0000F101003F4900FB0A
:1005700001F0484908600EE04348006800F01F00A1
:1005800000F10100394900FB01F04249086002E036
:1005900000204049086030BD00B52120394908607D
:1005A00000BF3848006810F0400FFAD001202E49F3
:1005B00008604FF009003549C1F884004FF0010090
:1005C000364908604FF0AA00354908604FF05500E1
:1005D000086000BF2C48006810F4806FFAD02F200C
:1005E000304908604FF001002849C1F8A0004FF0E1
:1005F000AA002D4908604FF055002449C1F8AC000D
:1006000000BF2548006810F4806FFAD040F2011056
:10061000144908604FF401701C49C1F808014FF0FB
:100620000000164908604FF004001249086048F2C3
:1006300008001E4908604FF005001449C1F8C801C0
:100640000846D0F8B00140F003001949086045F2AF
:100650003A000E4908604FF0000016490860FFF7A5
:100660004FFE00BD04C10F400CC10F40001BB7007E
:1006700000000010A8C10F400400001000C10F408E
:1006800008000010A0C10F4088C00F4000C00F40FC
:1006900008C10F400C000010A8C00F4080C00F40E0
:1006A0008CC00F40A4C00F40ACC00F40C4C00F406E
:1006B000B0C10F4008ED00E00F202C4908604FF05A
:1006C00000002B49C1F848012A490860704770476B
:1006D00001290AD1274A12680B4603FA00F342EABD
:1006E0000302234BC3F84C210BE051B9214A126895
:1006F0004FF0010303FA00F322EA03021C4BC3F894
:100700004C21704701290AD11B4A12680B4603FA93
:1007100000F342EA0302164BC3F848210BE051B93B
:10072000154A12684FF0010303FA00F322EA0302AC
:100730000F4BC3F84821704710B5044600200B4901
:10074000086061782078FFF7DDFFA1782078FFF757
:10075000BFFF10BD054909684FF0010202FA00F21F
:1007600041EA0201024AC2F84011704740C10F40FD
:1007700000C00F404CC10F4048C10F4010B50121CF
:100780004807FFF72FFD0020D2490860D249C1F881
:100790003001D2490860D2490860D2490860D24984
:1007A0000860D2490860D24908604FF0FF00CA498A
:1007B0008860086110BD70B50146C748C0690E78F1
:1007C0000123B340DBB2184201D0002070BDC94BF9
:1007D000086853F820200B7801209840C0B2BE4B27
:1007E00098600B7801209840C0B2BB4B1861002084
:1007F000D0601061086A9060486907287ED2DFE8FF
:1008000000F0041B436B961C4400C8681060086924
:1008100050608888C0F30B0040F410300B7A03F06E
:10082000070340EA83400B7A03F0070340EA435092
:1008300040F00C40D0607CE000BFC8681060AE4B58
:10084000C86953F820005060AC4BC869185C00F0D0
:100850000703486863F31F30A84ECB69F35C03F0CD
:10086000070340EAC330A64ECB69F35C03F00703ED
:1008700040EA8340CB69F35C03F0070340EA43504E
:1008800040F00440D06054E000BF9B4B886953F8AF
:100890002000106008695060984B8869185C00F06F
:1008A0000703486863F31F30944E8B69F35C03F0D1
:1008B000070340EAC330924E8B69F35C03F00703F1
:1008C00040EA83408B69F35C03F0070340EA43503E
:1008D00040F00840D0602CE0874B886953F8200036
:1008E0001060C86953F820005060844B8869185C18
:1008F00000F00703486863F31F3000E017E07F4E05
:10090000CB69F35C03F0070340EAC3307C4E8B698C
:10091000F35C03F0070340EA8340CB69F35C03F028
:10092000070340EA435040F00040D06001E000205F
:100930004CE700BF886908281BD08869092818D0AF
:1009400088690F280BD96F48D0F8C4010B7E103B83
:1009500001269E4030436B4BC3F8C40109E069484F
:10096000D0F8C4010E7E0123B3409843654BC3F811
:10097000C401C86908281BD0C869092818D0C869EB
:100980000F280BD95F48D0F8C4010B7F103B01261C
:100990009E4030435B4BC3F8C40109E05948D0F88E
:1009A000C4010E7F0123B3409843564BC3F8C401E2
:1009B0000120494B186300BF4748006B10F0010F3E
:1009C000FAD08C690F2C02D9A4F1100000E0204667
:1009D0000446CD690F2D02D9A5F1100000E028468C
:1009E0000546087D00F007004FF4404343EAC0206D
:1009F00004F01F0340EA430005F01F0340EA8310A0
:100A000010610120E2E602463A4B53F82200012928
:100A100004D1036943F00103036103E0036923F098
:100A20000103036170470246052A3BD2DFE802F06A
:100A3000030E19242F002848006801238B40DBB2E5
:100A4000184201D0012070470020FCE7224840688E
:100A500001238B40DBB2184201D00120F3E70020D4
:100A6000F1E71D48C36801208840C0B2034201D0AD
:100A70000120E8E70020E6E7174883690120884065
:100A8000C0B2034201D00120DDE70020DBE71248BD
:100A9000406901238B40DBB2184201D00120D2E72C
:100AA0000020D0E70C48C36901208840C0B203424F
:100AB00001D00120C7E70020C5E728B901228A40FC
:100AC000D2B2054B9A6004E001228A40D2B2024BB6
:100AD0001A6170471001082000000820500108200A
:100AE0007001082090010820B0010820D0010820E2
:100AF000F001082090000010100000107C79000028
:100B00009C79000000C00F4001460020062915D244
:100B1000DFE801F00305080B0E11F8480FE0F74875
:100B200020300CE0F548403009E0F448603006E041
:100B3000F248803003E0F148A03000E000BF00BF81
:100B4000704701460020062915D2DFE801F00305B1
:100B5000080B0E11E9480FE0E84820300CE0E748A8
:100B6000403009E0E548603006E0E448803003E0CA
:100B7000E248A03000E000BF00BF704701460020FF
:100B8000062915D2DFE801F00305080B0E11DB483A
:100B90000FE0DA4820300CE0D848403009E0D74870
:100BA000603006E0D548803003E0D448A03000E053
:100BB00000BF00BF704710B50121C803FFF712FB4B
:100BC00010BD10B500214FF40040FFF70BFB10BD26
:100BD0002DE9F04107460D4616463846FFF794FFCB
:100BE00004463CB11EB120682843206002E0206822
:100BF000A8432060BDE8F08170B506460C4630463B
:100C0000FFF782FF054605B1AC6170BD70B50646C1
:100C10000C463046FFF778FF054605B1EC6170BD24
:100C200070B505460E46144624B931462846FFF7EE
:100C3000EDFF03E031462846FFF7DEFF70BD70B5DB
:100C400005462846FFF760FF04460CB1606970BD99
:100C50000020FCE710B540B93AB9A94B1B6843EA3C
:100C60000103A84CC4F8903023E0022808D13AB917
:100C7000A54B1B6843EA0103A24CC4F8B03018E04E
:100C800048B9012A07D1A14B1B6843EA01039D4CD7
:100C9000C4F894300DE0022809D1012A07D19C4BF9
:100CA0001B6843EA0103974CC4F8B43001E000BF6D
:100CB000FEE710BD03463BB932B99648006820FAFA
:100CC00001F000F001007047022B07D132B99248C1
:100CD000006820FA01F000F00100F4E743B9012AAE
:100CE00006D18E48006820FA01F000F00100EAE722
:100CF000022B08D1012A06D18948006820FA01F0A8
:100D000000F00100DFE700BFFEE710B9854A11607F
:100D100006E0022802D1844A116001E000BFFEE72C
:100D2000704770B504460D461646324629462046A1
:100D3000FFF74EFF70BD70B504460D4629462046AC
:100D4000FFF75AFF70BD70B504460D462946204690
:100D5000FFF75CFF70BD10B504462046FFF76FFF3C
:100D600010BD70B504460D4616463246294620464B
:100D7000FFF770FF70BD70B504460D46164632464B
:100D800029462046FFF796FF70BD10B503460C4676
:100D900021461846FFF7B9FF10BD2DE9F04107467F
:100DA0000D4616463846FFF7AFFE04463CB11EB16D
:100DB00020692843206102E02069A8432061BDE842
:100DC000F0812DE9F04180460E4615461F4640460B
:100DD000FFF7B7FE04468CB147B11EB160882843C7
:100DE00060800BE020882843208007E01EB16088E7
:100DF000A843608002E02088A8432080BDE8F081FD
:100E00002DE9F04180460E4615461F464046FFF745
:100E100098FE04468CB147B11EB1608A28436082B7
:100E20000BE0208A2843208207E01EB1608AA84395
:100E3000608202E0208AA8432082BDE8F0812DE98B
:100E4000F04107460E4614463846FFF77AFE05463F
:100E50001DB10EB16C8300E02C83BDE8F0812DE95B
:100E6000F04107460E4614463846FFF76AFE05462F
:100E70001DB10EB1EC8300E0AC83BDE8F08170B52C
:100E800006460D463046FFF75CFE044624B10DB120
:100E9000E08A70BDA08AFCE70020FAE72DE9F04166
:100EA00080460C4616461F464046FFF767FE05463D
:100EB0005DB12FB1032C08DC285D3043285504E0D8
:100EC000032C02DC285DB0432855BDE8F0812DE9F4
:100ED000F04180460C4616461F464046FFF74EFE40
:100EE000054655B117B3032C29DC05F11000005D50
:100EF000304305F11001085521E020E00080092071
:100F00009080024000800240B08002409480024005
:100F1000B480024084800240A48002408880024065
:100F2000A88002408C800240AC800240032C06DC8A
:100F300005F11000005DB04305F110010855BDE852
:100F4000F0812DE9F04107460C4615463846FFF77B
:100F500015FE064626B1032C02DC06F118000555E5
:100F6000BDE8F0812DE9F04107460C4615463846AC
:100F7000FFF704FE064626B1032C02DC06F11C0036
:100F80000555BDE8F08170B506460C463046FFF7C2
:100F9000F5FD05462DB1032C03DC05F11400005DC1
:100FA00070BD0020FCE70000014621B1012904D0FA
:100FB000022906D103E0FB4805E0FB4803E0FB48BB
:100FC00001E0002000BF00BF70470246382090615A
:100FD0002020106021B900BF106810F0080FFBD06E
:100FE000506800F0F8007047026812F0200F01D03E
:100FF00020228261102202600822826151B905E03C
:10100000026812F0080F01D008228261026812F013
:10101000100FF5D1704702460B46506800F0F801FA
:10102000082907D0102905D0182903D0282901D074
:1010300008467047D8B29060042010600820906184
:10104000506800F0F800F4E7034698680870012A39
:1010500002D10420186001E0042098610820986102
:10106000586800F0F800704770B504460D4601203E
:10107000FFF7A1F8B0FBF5F6700820612069301A7F
:10108000606170BD2DE9F04105460F462846FFF727
:101090008BFF064625B1012D04D0022D08D104E0B6
:1010A000802407E04FF4002404E04FF0806401E066
:1010B000BDE8F08100BF01212046FFF793F83946D3
:1010C0003046FFF7D1FF6420B06100BFF0E770B594
:1010D00005462846FFF768FF0646FF20B06125B1A8
:1010E000012D04D0022D08D104E0802406E04FF445
:1010F000002403E04FF0806400E070BD00BF0021D9
:101100002046FFF76FF800BFF7E72DE9F0410746EB
:101110000D4616463846FFF747FF0446012E07D115
:10112000012D02D04020206004E04420206001E036
:101130004020A061BDE8F08130B5024622B1012A0D
:1011400004D0022A06D103E00A2004E00B2002E0CA
:101150000C2000E030BD00BF69B100BF00F01F04EB
:101160000123A34044094FF0E02505EB8404C4F8B3
:10117000003100BF0AE000BF00F01F040123A340BC
:101180008B4C450944F8253000BF00BF00BFE1E7A4
:101190002DE9F84F82460F46144698465046FFF711
:1011A00003FF05464FF0000BE168606800EB0109A2
:1011B000A16920694618382F5ED00BDC17F0070FA5
:1011C00070D1F81007286DD2DFE800F0B215162EA6
:1011D000B12F4B00582F7AD006DC402F55D0482F26
:1011E00076D0502FECD15EE0782F46D0B02F45D08E
:1011F000F82FE5D1A3E000BFE068A168884206D2DD
:1012000021782846FFF707FF4FF0010B09E0A0699E
:101210006169884205D221782846FFF7FCFE4FF02D
:10122000010B2020A8619FE000BFE068A168884210
:101230000CD299F800102846FFF7EDFE09F10109DC
:10124000E068401CE0604FF0010B09E0A0696169B3
:10125000884203D341462846FFF7C6FE4FF0080BED
:1012600082E0A0696169884203D341462846FFF7BE
:10127000BBFE4FF0080B77E000BF00BF4146284699
:10128000FFF7B2FE4FF0805B6EE06069012802D983
:101290000420286001E00420A8610820A8614FF024
:1012A000020B61E05DE0A0696169884220D260695B
:1012B00001280ED9A1696069801E814209D20122EC
:1012C00069462846FFF7C0FE4FF0020B08E016E023
:1012D0002CE0002269462846FFF7B6FE4FF0020BCD
:1012E0009DF8000006F8010BA069401CA06105E014
:1012F00041462846FFF778FE4FF0100B34E00022FD
:1013000069462846FFF7A0FEA0696169884206D2B7
:101310009DF8000006F8010BA069401CA061414641
:101320002846FFF761FE4FF0100B1DE000BF00BF25
:1013300041462846FFF758FE4FF0805B14E0E06816
:10134000A168884203D3A0696169884206D24146F8
:101350002846FFF749FE4FF0805B01E04FF0100B8D
:1013600002E00820A86100BF00BF5846BDE8F88F22
:101370002DE9F0478146884614464846FFF714FE9B
:1013800005464FF0000AA168206846186169E068C8
:10139000471818F0070F79D14FEAE8000C381428E5
:1013A00074D207E000C0014000C0054000000A40C0
:1013B00080E100E0DFE800F00A150B1016723273CE
:1013C0007A4357446C6B81818181818200BF042004
:1013D00028600820A86176E0242028600820A86101
:1013E00071E000BF60692169884209D2E06838B1C4
:1013F000A86807F8010B6069401C60614FF0020AA1
:1014000060692169884204D10C20A8614FF0020A6A
:1014100003E0042028600820A86154E06069216985
:10142000884209D2E06838B1A86807F8010B606902
:10143000401C60614FF0020A0C20A86143E000BF2D
:10144000A0686168884209D2206838B116F8010B9B
:10145000A860A068401CA0604FF0010A042028602A
:101460000820A8612FE0A0686168884209D220683E
:1014700038B116F8010BA860A068401CA0604FF0BE
:10148000010A242028600820A8611CE015E000BFA4
:10149000042028600820A861824614E000BF0420D0
:1014A00028600820A8614FF0100A0CE00420286092
:1014B0000820A8614FF0200A05E000BF0420286042
:1014C0000820A86100BF00BF5046BDE8F0872DE9A5
:1014D000F04105462846FFF767FD06460027FA4813
:1014E00050F83540706800F0F808C4F824800123F3
:1014F000224641462846FFF74BFE074617F0805F1D
:1015000010D0D4E9071088420BD2206A401C206218
:101510000020E060A06101213046FFF756FDBDE8E4
:10152000F08111E017F0080F09D0A06961698842C5
:1015300000D309E001213046FFF747FDEFE717F040
:10154000100F00D000E0EAE700212846FFF7F4FD85
:101550002C20B0610120DD4941F8250000BFDEE705
:101560002DE9F04705462846FFF71EFD06464FF0D9
:101570000008D54850F8354000BF706800F0F80703
:10158000A761224639462846FFF7F2FE804618F04A
:10159000805F00D023E018F0200F1AD000212846E9
:1015A000FFF7CAFD4FF4803912E0306810F0080FE1
:1015B00004D001212846FFF7BFFDDEE7A9F10109AC
:1015C000B9F1000F04D1A06940F48060A06106E089
:1015D000EBE718F0080F00D001E0BDE8F08700212C
:1015E0002846FFF7A9FD2C20B0610120B84941F839
:1015F000250000BFF1E72DE9F04706460C461746E7
:101600003046FFF7D1FC804600250020E060A06155
:101610006062002F49D1206200BF0020E060A0611D
:1016200000214046FFF7D1FC814637E000232246E7
:1016300049463046FFF7ACFD054615F0805F0BD0FC
:10164000206A401C2062D4E90710884203D949F47B
:101650000070606227E0E0E715F0010F02D115F09D
:10166000020F06D000BFD8F8000010F0080FFAD023
:1016700010E015F0080F09D0A0696169884200D315
:101680000DE000214046FFF7A0FC03E015F0100F2D
:1016900000D004E0D8F8040000F0F809C6E700BF65
:1016A0000120BDE8F0870020FBE7012F11D186481B
:1016B00040F836400020844901EBC6014860012112
:1016C0004046FFF782FC01213046FFF735FD01203F
:1016D000E7E70020E5E72DE9F05F07460C46904676
:1016E0003846FFF761FC05464FF000090020A06076
:1016F0006061A061B8F1000F3FD10420286038205C
:10170000A8614FF0000B4FF0000A28E0286810F0A5
:10171000080F1AD04FF0000B686800F0F806224658
:1017200031463846FFF724FE814619F0805F00D02D
:101730001EE019F0200F04D04FF0010B4FF0000A0B
:101740000DE019F0080F0AD00AE0BBF1000F06D037
:1017500050460AF1010AB0F5803F00D900E0D5E714
:101760000420A86146F48060A0610120BDE8F09FDC
:101770000420A861A6610020F8E7B8F1010F11D19B
:10178000514840F8374001204F4901EBC7014860FC
:10179000042028602820A86101213846FFF7CCFCEE
:1017A0000120E3E70020E1E72DE9F04107460C4680
:1017B0003846FFF7F9FB0546A078012800D100E084
:1017C0000020617840EA4100C6B2207830B101289B
:1017D0000AD002280ED0032818D111E0EE60E0787C
:1017E00000F0FE00286311E02E62E07800F0FE00B9
:1017F00068630BE06E62E07800F0FE00A86305E02D
:10180000AE62E07800F0FE00E86300BF00BFBDE814
:10181000F0812DE9F04107460D4616463846FFF7A0
:10182000C3FB0446012E03D1E0692843E06104E0D4
:10183000E0690721A9430840E061BDE8F08170B587
:1018400006460D463046FFF7AFFB0446012D08D192
:10185000E06940F00100E061042020602820A061E0
:1018600005E0E06900F00600E0612C20A0610020A6
:101870001849086070BD70B504462046FFF794FB18
:101880000546E86AC0B270BD2DE9F04107460C4636
:1018900015463846FFF788FB06464FF0000808203B
:1018A000B061F06A0B49096860540A480068401C3E
:1018B0000849086008460068A84201D34FF00108B3
:1018C0004046BDE8F0810000AC020010C4020010E8
:1018D000D0020010B00000100146084A52F8210062
:1018E0000022064B43F8212070470146044A52F873
:1018F00021000022024B43F821207047C40200104F
:10190000D002001070B58AB005460E4614464FF45A
:101910000070029002200390069400200990019626
:10192000052C07D10495FE48059000200790012062
:1019300008900CE0062C07D1F94804900595012089
:1019400007900020089002E000200AB070BD01A8B6
:10195000FEF731FFF0B20121FFF755F81A2001F030
:10196000C2F80120F1E730B50446EE48007810B91E
:101970000022072301E008220F23EA48007808B973
:10198000012000E00020E74D2870114606E0E44801
:1019900050F821002060241D481CC1B29942F6DD98
:1019A000002030BD30B50446DE48007810B9002272
:1019B000072301E008220F23DA48007808B9012044
:1019C00000E00020D74D2870114606E0D448256875
:1019D00040F82150241D481CC1B29942F6DD002078
:1019E00030BDCF488038C06B40F21A710843CC49F3
:1019F0008039C8637047CA488038C06B40F21A719A
:101A00008843C7498039C8637047C5488038C06B70
:101A100040F22A710843C2498039C8637047C04800
:101A20008038C06B40F22A718843BD498039C86351
:101A30007047F0B503460C46002100260CB9002083
:101A4000F0BD3EE0B6488038416B11F0040F0FD076
:101A500041F00400B24F803FB8630020F860401EA0
:101A6000B860002600E0761C102EFCD30846E7E79D
:101A700011F0010F1CD041F00100A94F803FB86365
:101A80003846C06800F03F05012D03D0292D01D054
:101A90000C2D0BD10020A24F803FF860401EB86093
:101AA000002600E0761C102EFCD30BE00846C7E7AA
:101AB00011F0400F05D041F04000994F803FB863CE
:101AC00000E0BFE700BF96488038006900F03F00A3
:101AD00098420BD0012B09D0292B07D0022B05D01F
:101AE000092B03D04FF0FF310846A9E7C2B1012C02
:101AF00004D18B4880384069106011E0022C0FD16E
:101B00008748803840691060854880388069506017
:101B100083488038C069906081488038006AD0600E
:101B200000208DE7F8B5014600200C684D688A68F2
:101B3000CE6816E00027DFF8E8C1ACF1800CCCF8E5
:101B40000C70009702E0009F7F1C0097009F102FF1
:101B5000F9D343F40067DFF8C8C1ACF1800CCCF8CE
:101B600038706F4F803F7B6B13F4006FE2D104F04D
:101B70003F07384312B920F0C00008E0012A02D123
:101B800040F0400003E0022A01D140F0C000012EE5
:101B900002D120F4807001E040F4807040F4806055
:101BA00040F2FF77DFF878C1ACF1800CCCF83870E8
:101BB0006746BD60F8600027009702E0009F7F1C29
:101BC0000097009F102FF9D300BF554F803F7F6BC8
:101BD000002FFAD000BF524F803F7F6B17F4006F89
:101BE000F9D1F8BD2DE9F0410446D4F80080A6688B
:101BF00027692046FFF796FF07B936B13A463146C6
:101C00004046FFF716FF054601E06FF00105284644
:101C1000BDE8F0812DE9F0418AB004464FF0FF386D
:101C20001CB900200AB0BDE8F0813F48007838B107
:101C30003D480078022803D03B480078032802D1B1
:101C40003A48076801E04FF4803720250D200090C6
:101C5000019701200290039005A8049015E06846C2
:101C6000FFF7C0FF064616B14FF0FF3803E00598B6
:101C700020600020D6E76D1E0020099002E0099840
:101C8000401C099009981028F9D3002DE7D140464F
:101C9000C8E7F8B504464FF0FF373D0C20E0684632
:101CA000FFF7B8FF00B11DE0009810F4807F02D16B
:101CB0006FF004070EE00098C0F34320A04207D065
:101CC0000098C0F34320072804D06FF00300F8BD4C
:101CD0000020FCE76D1E002600E0761C202EFCD3C1
:101CE000002DDCD100BF3846F1E70D498039486B43
:101CF00010F0010F03D00121094A803A916310F0DE
:101D0000040F03D00421064A803A916310F0400F7B
:101D100003D04021024A803A916310F0800F07E01F
:101D200080000C40BC000010D5000010D000001056
:101D300002D08021F84A916310F4006F03D04FF471
:101D40000061F54A91637047F349486B10F0020F48
:101D500002D00221F04A916310F0080F02D008214E
:101D6000ED4A916310F0100F02D01021EA4A9163FE
:101D700010F0200F02D02021E74A916310F4007F79
:101D800003D04FF40071E44A91630021E34A1160EB
:101D9000E3490860704700B5DF48426B12F4807F6A
:101DA0000CD08015DC4988630020DC490860DC49E0
:101DB0000860FFF720FEFFF732FE00BD12F4806FCF
:101DC00004D04FF48060D4498863F6E700BFF4E79D
:101DD000704700B5D048436B40F23A20034202D02E
:101DE000FFF7B2FF00BD13F4A06F02D0FFF7D3FFDF
:101DF000F8E7CC48034202D0FFF7EAFFF2E740F6EB
:101E0000C500034202D0FFF770FFEBE700BFE9E730
:101E1000F8B5044600250120FEF7CDF9064602205C
:101E200000FB0460401E6100B0FBF1F505B16D1EC2
:101E3000B948406820F0FF0040F480702843B6495C
:101E400048600020009002E00098401C009000983C
:101E50001028F9D3F8BDF0B58AB04FF0FF37B2487B
:101E6000007838B1B0480078022803D0AE48007836
:101E7000032802D1AD48056800E00025142437206E
:101E80000090019501200290039005A8049019E0AC
:101E90006846FFF7A7FE064616B14FF0FF3707E08A
:101EA000059810F0200F01D000270DE06FF0040717
:101EB0000020099002E00998401C09900998202808
:101EC000F9D3641E002CE3D100BF38460AB0F0BD40
:101ED000F0B58AB005464FF0FF3720260620009067
:101EE000019501200290039005A8049026E00420AB
:101EF000FFF7CFFE074617B138460AB0F0BDFFF72F
:101F0000AAFF88B96846FFF76DFE044614B14FF08A
:101F1000FF3709E086490598084201D04816ECE7EA
:101F20000420FFF7B6FEE8E70020099002E00998D8
:101F3000401C099009982028F9D3761E002ED6D18E
:101F40003846DAE738B50446002534B972484068A7
:101F500020F400607049486008E0012C06D16E480A
:101F6000406840F400606C4948600A2500200090F9
:101F700002E00098401C009000981028F9D36A48AD
:101F8000007838B168480078022803D066480078A5
:101F9000032806D12846FFF79BFF10B14FF0FF3012
:101FA00038BD0020FCE770B58AB04FF0FF364FF423
:101FB0000075012000905F4801900120029003907D
:101FC00005A804901CE06846FFF70CFE044614F0D8
:101FD000040F02D06FF0020608E0059810F0004FE1
:101FE00002D16FF0020601E000260BE0002009900C
:101FF00002E00998401C099009982028F9D36D1E29
:10200000002DE0D100BF30460AB070BD002101288C
:1020100006D1414A126842F040023F4B1A6005E087
:102020003D4A126802F083023B4B1A60002100E037
:10203000491C1029FCD370472DE9F0418AB00546B0
:102040004FF0FF383B4840EA85774FF4005629208F
:102050000090019701200290039005A804900020B1
:10206000FFF7D4FF2BE0FFF7F6FE5FEA000818D178
:102070006846FFF7B7FD044614F0040F02D06FF076
:10208000020812E0059810F0004F02D16FF002082C
:102090000BE00598C0F38070274908704FF00008E6
:1020A0000FE040460AB0BDE8F0810020099002E050
:1020B0000998401C099009982028F9D3761E002E13
:1020C000D1D100BF4046EDE72DE9F0438AB04FF093
:1020D000FF390126AA2747EA062814250820009080
:1020E000CDF8048001200290039005A8049039E007
:1020F0006846FFF777FD044614F0040F02D06FF036
:10210000020925E00598C0B2B84217D06FF001006F
:102110000AB0BDE8F083000000000C40B4000010DD
:10212000B800001000C40F00D5000010D00000104F
:102130000880F8FD0080FF00D40000100598C0F36F
:102140000320B04202D06FF00100E1E70020DFE79A
:102150000020099002E00998401C09900998202865
:10216000F9D36D1E002DC3D14846D1E700B585B027
:102170000020009001900290039004906846FFF7C1
:10218000D1FC002005B000BD18B54FF0FF34FF2092
:10219000F9490870FFF7EAFF08B1204618BD002092
:1021A000FFF734FF0020009002E00098401C0090F0
:1021B0000098B0F5405FF8D3FFF786FF0446A01CF7
:1021C00001D12046EAE774B90120FFF735FF04008A
:1021D00009D10220E8490870E848007808B10320D6
:1021E00008700020DAE73CB10020FFF725FF04006B
:1021F00002D1E1490870D1E7A4B10120FFF706FF41
:102200000020009002E00098401C00900098B0F57B
:10221000405FF8D3FFF7C7FE20B90120D649087008
:102220000020BBE70020B9E738B50446FF20D249BB
:10223000087000220221012000F0D1FC01220421BB
:102240001046FEF7C5FC04210120FEF7DFFC00224A
:102250000321012000F0C3FC012208211046FEF7F3
:10226000B7FC08210120FEF7D1FC00220521012046
:1022700000F0B5FC012220211046FEF7A9FC202128
:102280000120FEF7B9FC00220621012000F0A7FC86
:10229000012240211046FEF79BFC40210120FEF761
:1022A000B5FC00220721012000F099FC01228021C9
:1022B0001046FEF78DFC80210120FEF7A7FC0022CE
:1022C0000B21012000F08BFC0122D1021046FEF709
:1022D0007FFC4FF400610120FEF798FC00220C21E6
:1022E000012000F07CFC012211031046FEF770FC77
:1022F0004FF480510120FEF789FC0020009002E09D
:102300000098401C00900098B0F5801FF8D39C48BE
:10231000006840F080509B49C1F8C4009A4840686A
:1023200010F4807F0ED09848406820F48070964961
:1023300048600020009002E00098401C0090009847
:102340001028F9D39048006810F0020F0AD000203E
:102350008D490860009002E00098401C00900098B1
:102360001028F9D300208849C863022211460120B1
:1023700000F035FC02220321012000F030FC022293
:102380000521012000F02BFC02220621012000F093
:1023900026FC02220721012000F021FC02220B2151
:1023A000012000F01CFC02220C21012000F017FC8F
:1023B0003CB97648006820F008007249C1F8A001D5
:1023C00006E07248006840F008006E49C1F8A001BC
:1023D0006FF060406C4948624FF00000C8600090A8
:1023E00002E00098401C009000981028F9D30020CB
:1023F0006549C862009002E00098401C0090009877
:102400001028F9D340F2FF705F498863022008600A
:102410000020009002E00098401C009000981028D6
:10242000F9D30020009002E00098401C0090009832
:10243000B0F5002FF8D35648FFF7EAFC5248006881
:1024400040F00100504908600020009002E0009830
:10245000401C009000981028F9D31D2000F043FB89
:10246000FFF792FE002038BD434890F90000704706
:1024700070B58AB004464FF4007602200090002028
:102480000190022002900120039005A8049038E0FA
:102490006846FFF7A7FB054615F0040F27D11CB3CC
:1024A0000598000E20700598C0F30F2060800598F5
:1024B00020710698A0600798000E2073DDE90710D0
:1024C000000E61F31F2020610898C0F304502075AE
:1024D0000898C0F30B20E0820898C0F346002076ED
:1024E000089800F00100607600200AB070BD00205E
:1024F000099002E00998401C099009982028F9D316
:10250000761E002EC4D1F01EEFE7F0B587B04FF075
:10251000FF371948007838B117480078022803D0EF
:1025200015480078032801D1002601E04FF48036D9
:10253000202403200090019601200290039005A81A
:10254000049042E06846FFF74DFB054615F0040F86
:1025500002D06FF002072EE0059810F4807F02D1C0
:102560006FF0040727E00598C0F34320022811D03C
:102570006FF003071FE00000D5000010D40000102A
:10258000C4C00F4000C00F4000000C40A0C10F406D
:10259000801A06004FF6FF71059801EA1040F649CF
:1025A000086008460068000408600020FFF72EFD60
:1025B000002007B0F0BD0020069002E00698401C05
:1025C000069006982028F9D3641E002CBAD138460C
:1025D000EFE7E94800687047F0B58AB00446E7487D
:1025E000007838B1E5480078022803D0E348007845
:1025F000032802D1E048066801E04FF48036202528
:10260000092000900196022002900120039005A865
:10261000049021E00320FFF73CFB18B16FF00300AA
:102620000AB0F0BD6846FFF7DDFA074657B93CB17E
:1026300005982060069860600798A0600898E060A0
:102640000020EDE70020099002E00998401C099065
:1026500009982028F9D36D1E002DDBD1681EDFE715
:10266000F0B58AB04FF0FF37C448007838B1C3489E
:102670000078022803D0C1480078032802D1BE4860
:10268000066801E04FF48036202407200090019670
:1026900001200290039005A8049044E00320FFF776
:1026A000F8FA98B10420FFF7F4FA78B10520FFF7A3
:1026B000F0FA58B10720FFF7ECFA38B10820FFF71D
:1026C000E8FA18B16FF003000AB0F0BD6846FFF7F2
:1026D00089FA054615B14FF0FF371AE0A849059869
:1026E000084201D04816EFE70320FFF7D2FA70B195
:1026F0000420FFF7CEFA50B10720FFF7CAFA30B135
:102700000820FFF7C6FA10B16FF00300DCE70020E5
:10271000DAE70020099002E00998401C0990099826
:102720002028F9D3641E002CB8D13846CCE7F0B588
:102730008AB005464FF0FF37202610200090019503
:1027400001200290039005A8049023E00420FFF7E5
:10275000A0FA18B16FF003000AB0F0BD6846FFF7A9
:1027600041FA044614B14FF0FF3709E08449059857
:10277000084201D04816EFE70420FFF78AFAEBE79A
:102780000020099002E00998401C0990099820282F
:10279000F9D3761E002ED9D13846DDE77948006896
:1027A000704779480068704770B58AB04FF0FF36BF
:1027B0000420FFF76EFA10B900200AB070BD202483
:1027C0000C2000900020019001200290039005A8A9
:1027D00004902FE00520FFF75CFA30B10620FFF7E8
:1027E00058FA10B16FF00300E7E76846FFF7FAF90F
:1027F000054615B14FF0FF3612E0614905980842D1
:1028000001D04816D9E70720FFF743FA30B104207A
:10281000FFF73FFA10B16FF00300CEE70020CCE7DE
:102820000020099002E00998401C0990099820288E
:10283000F9D3641E002CCDD13046BEE72DE9F0431C
:102840008AB0044688464FF0FF39B8F1010F01D92C
:10285000192700E01827202500974848007803280A
:1028600001D1019401E060020190012002900390E7
:1028700005A804902DE00420FFF70BFA20B16FF0BB
:1028800003000AB0BDE8F0836846FFF7ABF90646DF
:1028900016B14FF0FF3912E039490598084201D0CE
:1028A0004816EEE70620FFF7F4F930B10420FFF7F1
:1028B000F0F910B16FF00300E3E70020E1E700203A
:1028C000099002E00998401C099009982028F9D342
:1028D0006D1E002DCFD14846D3E72DE9F0438AB0D5
:1028E000044688464FF0FF39B8F1010F01D912278D
:1028F00000E011272025009720480078032801D107
:10290000019401E06002019001200290039005A86B
:1029100004902DE00420FFF7BCF920B16FF0030014
:102920000AB0BDE8F0836846FFF75CF9064616B1C9
:102930004FF0FF3912E012490598084201D04816BD
:10294000EEE70520FFF7A5F930B10420FFF7A1F964
:1029500010B16FF00300E3E70020E1E700200990E9
:1029600002E00998401C099009982028F9D36D1EAF
:10297000002DCFD14846D3E7D0000010D50000107D
:102980000880F8FDB4000010B8000010F8B5054646
:102990000E46144600276002B0F5803F01D3B81EF2
:1029A000F8BD5748056040F2FF7056498863002023
:1029B000C862009002E00098401C00900098102827
:1029C000F9D30420FFF765F910B16FF00300E7E7D2
:1029D0004D484C4948626002886201204B490860BA
:1029E00000204B4908604B4908704B490860FEF7CE
:1029F000F8FF21463046FFF721FF10B14FF0FF30BE
:102A0000CEE7052202213E480068FEF77BFF47F033
:102A100099073C48C7620020009002E00098401CE3
:102A2000009000981028F9D30020B9E7F8B50546C2
:102A30000E46144600276002B0F5803F01D3B81E51
:102A4000F8BD3648056040F2FF702E4988630020CB
:102A5000C862009002E00098401C00900098102886
:102A6000F9D30420FFF715F910B16FF00300E7E781
:102A7000FEF7CBFF2A4823494862600288620120A2
:102A8000224908600020224908602649086021493F
:102A900008700622032121480068FEF733FF47F043
:102AA0009B071848C7620020009002E00098401C75
:102AB000009000981028F9D321463046FFF70DFF0B
:102AC00010B14FF0FF30BBE70020B9E708B5002098
:102AD0000C490860009002E00098401C00900098AB
:102AE000FF28F9D908BD00F01F02012191404209D9
:102AF0004FF0E02303EB8202C2F8001170470000A0
:102B0000C000001000000C40002D3101B400001086
:102B1000B8000010BC000010C8000010C400001075
:102B2000404B4C00CC00001010B50246002001EBD9
:102B30004213F74C04EB830010BD02460520062A21
:102B40004AD2DFE802F0032F393A3B3D062907DD80
:102B50000A2901DB0B2903DD0E2903DB162901DC21
:102B600000201EE00C2905D00D2903D0172903DB16
:102B70001A2901DC012014E01D2903D01E2901D0EF
:102B80001F2901D102200CE01B2901D01C2901D1F1
:102B9000032006E0072903D0082901D0092900D124
:102BA00004201AE01D2901DC002004E01E2901D0C8
:102BB0001F2900D1012010E000BF00BF00200CE061
:102BC000012901DD042901D1002004E0022901D0FE
:102BD000032900D1032000E000BF00BF70472DE9AA
:102BE000F04106460F461546002439463046FFF7A9
:102BF000A4FF8046B8F1050F02D1C648BDE8F081B8
:102C000039463046FFF790FF0446206820F0070061
:102C1000206005F007012068084320600020EDE7F0
:102C20002DE9F041074688461646002441463846BD
:102C3000FFF783FF0546052D02D1B648BDE8F081B8
:102C400035B1012D04D0042D02D0B248401CF5E767
:102C500041463846FFF768FF0446206820F0180018
:102C60002060182101EAC601206808432060002086
:102C7000E4E72DE9F0410746884616460024414620
:102C80003846FFF75AFF0546052D02D1A148BDE899
:102C9000F08125B1042D02D09E48401CF7E7414643
:102CA0003846FFF741FF044626B9206820F020008F
:102CB000206003E0206840F0200020600020E6E76C
:102CC0002DE9F0410746884615460024414638461E
:102CD000FFF733FF0646052E02D18E48BDE8F0818E
:102CE000022E02D18B48401CF8E741463846FFF7D8
:102CF0001BFF044625B9206820F04000206003E057
:102D0000206840F0400020600020E7E72DE9F04116
:102D1000074688461646002441463846FFF70DFF11
:102D20000546052D02D17B48BDE8F08125B1042D73
:102D300002D07848401CF7E741463846FFF7F4FEDA
:102D4000044626B9206820F40070206003E0206863
:102D500040F4007020600020E6E72DE9F0410746CE
:102D600088461546002441463846FFF7E6FE0646EB
:102D7000052E02D16748BDE8F081032E02D06548D8
:102D8000401CF8E741463846FFF7CEFE044625B121
:102D9000206820F48070206003E0206840F4807098
:102DA00020600020E7E72DE9F041074688461546F8
:102DB000002441463846FFF7C0FE0646052E02D1E4
:102DC0005448BDE8F081032E02D05248401CF8E779
:102DD00041463846FFF7A8FE044625B1012D0CD028
:102DE000022D1ED113E0012241463846FFF7B5FF00
:102DF000206820F40070206016E00022414638462A
:102E0000FFF7ABFF206820F4007020600CE0012287
:102E100041463846FFF7A1FF206840F4007020606B
:102E200002E04FF0FF30CCE700BF0020C9E72DE9FA
:102E3000F041074688461646002441463846FFF7CB
:102E40007CFE0546052D02D13248BDE8F08135B142
:102E5000012D04D0042D02D02E48401CF5E7414638
:102E60003846FFF761FE044626B9206820F48060EA
:102E7000206003E0206840F4806020600020E4E7E8
:102E80002DE9F0410746884615460024414638465C
:102E9000FFF753FE0646052E02D11E48BDE8F0811D
:102EA000012E02D01B48401CF8E741463846FFF788
:102EB0003BFE044625B1206820F08000206003E03E
:102EC000206840F0800020600020E7E72DE9F04115
:102ED00005460E461746002431462846FFF72DFECC
:102EE0008046B8F1050F02D10A48BDE8F0810DB95E
:102EF0001A2E02D00748401CF7E731462846FFF754
:102F000013FE044647B1206840F48030206007E09B
:102F100000C0024001000010206820F480302060D2
:102F20000020E2E72DE9F0410746884616460024D6
:102F300041463846FFF701FE0546052D02D10D48F2
:102F4000BDE8F081012D04D0042D02D00948401CB9
:102F5000F6E741463846FFF7E7FD044626B120680C
:102F600020F48070206003E0206840F480702060CE
:102F70000020E5E70100001010B5044601214802D9
:102F8000FDF730F90020207020722073FF2020749C
:102F90000020206410BD10B50446002020720021DE
:102FA0004FF40070FDF71EF910BD017A41F00201E7
:102FB0000172017A01F0110101727047012904D1F7
:102FC000027A42F00102027203E0027A02F0120277
:102FD00002727047012A30D108292DD2DFE801F0B2
:102FE00004090E13181D2227037B43F0010303730A
:102FF00022E0037B43F0020303731DE0037B43F0F5
:103000000403037318E0037B43F01003037313E01E
:10301000037B43F0080303730EE0037B43F02003BC
:10302000037309E0037B43F04003037304E0037B75
:1030300043F08003037300BF30E008292DD2DFE89E
:1030400001F004090E13181D2227037B03F0FE0371
:10305000037322E0037B03F0FD0303731DE0037B96
:1030600003F0FB03037318E0037B03F0EF03037328
:1030700013E0037B03F0F70303730EE0037B03F01D
:10308000DF03037309E0037B03F0BF03037304E072
:10309000037B03F07F03037300BF00BF7047012A67
:1030A00030D108292DD2DFE801F004090E13181DD4
:1030B0002227037C03F0FE03037422E0037C03F069
:1030C000FD0303741DE0037C03F0FB03037418E0AD
:1030D000037C03F0EF03037413E0037C03F0F703B6
:1030E00003740EE0037C03F0DF03037409E0037C48
:1030F00003F0BF03037404E0037C03F07F03037455
:1031000000BF30E008292DD2DFE801F004090E13DA
:10311000181D2227037C43F00103037422E0037C83
:1031200043F0020303741DE0037C43F004030374C3
:1031300018E0037C43F01003037413E0037C43F0B6
:10314000080303740EE0037C43F02003037409E0DA
:10315000037C43F04003037404E0037C43F08003EA
:10316000037400BF00BF7047082940D2DFE801F0B8
:10317000040B1219202830383B2A03D802F03F03F1
:1031800080F8203033E03B2A03D802F03F0380F878
:1031900024302CE0172A03D802F01F0380F82830CF
:1031A00025E0062A03D802F0070380F830301EE03D
:1031B0002AB11F2A03D802F01F0380F82C3016E032
:1031C0002AB1B2F5B77F02D8C2F3080383860EE0B6
:1031D0002AB10C2A03D802F00F0380F8383006E039
:1031E000B2F5805F02D2C2F30B03838700BF00BF3A
:1031F0007047024608292BD2DFE801F004090E13BC
:10320000181D212692F8200000F03F00704792F828
:10321000240000F03F00F9E792F8280000F01F00BA
:10322000F4E792F8300000F00700EFE792F82C0086
:1032300000F01F00EAE7908EC0F30800E6E792F87E
:10324000380000F00F00E1E7908FC0F30B00DDE7DE
:103250000020DBE70A7B02F01F0200F1200002736E
:103260000A7C02F0070202748A8AC2F30802828290
:103270000A7A02F01F0202720A7902F03F0202711A
:103280000A7802F03F0202700A7E02F00F02027614
:103290008A8BC2F30B028283A0F12000704700F1F9
:1032A0002000027B02F01F02CA60027C02F00702CB
:1032B0000A61828AC2F308024A61027A02F01F029E
:1032C0008A60027902F03F024A60027802F03F020F
:1032D0000A60027E02F00F028A61828BA0F1200058
:1032E000C2F30B02CA617047082942D2DFE801F03D
:1032F000040B1219202831393B2A03D802F03F036E
:1033000080F8603035E03B2A03D802F03F0380F8B4
:1033100064302EE0172A03D802F01F0380F86830CB
:1033200027E0062A03D802F0070380F8703020E077
:103330002AB11F2A03D802F01F0380F86C3018E06E
:1033400032B1B2F5B77F03D8C2F30803A0F87430E6
:103350000FE02AB10C2A03D802F00F0380F878306E
:1033600007E0B2F5805F03D2C2F30B03A0F87C3014
:1033700000BF00BF7047024608292DD2DFE801F0E8
:1033800004090E13181D222792F8600000F03F0078
:10339000704792F8640000F03F00F9E792F8680087
:1033A00000F01F00F4E792F8700000F00700EFE76C
:1033B00092F86C0000F01F00EAE7B2F87400C0F366
:1033C0000800E5E792F8780000F00F00E0E7B2F8B7
:1033D0007C00C0F30B00DBE70020D9E70A7B02F09A
:1033E0001F0200F1600002730A7C02F007020274FF
:1033F0008A8AC2F3080282820A7A02F01F020272EB
:103400000A7902F03F0202710A7802F03F0202706C
:103410000A7E02F00F0202768A8BC2F30B028283CD
:10342000A0F16000704700F16000027B02F01F0213
:10343000CA60027C02F007020A61828AC2F30802B3
:103440004A61027A02F01F028A60027902F03F02AA
:103450004A60027802F03F020A60027E02F00F0228
:103460008A61828BA0F16000C2F30B02CA617047CF
:1034700002461078084201D0012070470020FCE786
:1034800002780A4302707047012904D1027A02F0DF
:103490000302027203E0027A42F0100202727047E5
:1034A00010B5C1F31003012A01D1540400E0002437
:1034B0002343036410BD10B500F1440303EB810303
:1034C0001A6010BD10B5024602F1440303EB8103FC
:1034D000186810BD00B9704700210CE0002201EB14
:1034E0004103C25401EB410303449A7001EB4103D1
:1034F00003445A70491C0329F0D34022C26000BF24
:10350000E9E7014609B900207047FA48007A10F04F
:10351000010F01D10020F7E7087838B1F6480068BC
:1035200040F00400F34AC2F8840006E0F248006864
:1035300020F00400EF4AC2F88400487838B1EE4821
:10354000006840F00100EB4AC2F8840006E0EA4857
:10355000006820F00100E74AC2F88400887838B19A
:10356000E548006840F00200E24AC2F8840006E044
:10357000E148006820F00200DE4AC2F88400C87802
:1035800038B1DD48006840F48050DA4AC2F884005F
:1035900006E0D948006820F48050D64AC2F884007A
:1035A000087938B1D448006840F48060D14AC2F844
:1035B000840006E0D048006820F48060CD4AC2F85C
:1035C0008400487938B1CC48006840F40060C94AAA
:1035D000C2F8840006E0C848006820F40060C54ACC
:1035E000C2F88400887938B1C348006840F480008C
:1035F000C04AC2F8840006E0BF48006820F480009A
:10360000BC4AC2F88400C87938B1BB48006840F4AD
:103610008010B84AC2F8840006E0B748006820F479
:103620008010B44AC2F88400087A38B1B248006801
:1036300040F40010AF4AC2F8840006E0AE480068CB
:1036400020F40010AB4AC2F88400AB48006820F0B8
:103650004040A94A1060C86838B110280BD04028F3
:1036600011D0B0F57A7F1ED115E0A3480068A14AB9
:10367000C2F8840019E0A048006840F080409D4AEC
:10368000C2F8840011E09C48006840F00040994A6C
:10369000C2F8840009E09848006840F04040954A2C
:1036A000C2F8840001E000202EE700BF01202BE7D4
:1036B000024622B1012A13D0022A33D121E039B1C6
:1036C0008D48006840F008008A4BC3F8840006E08B
:1036D0008948006820F00800864BC3F8840023E086
:1036E00039B18548006840F40050824BC3F884002B
:1036F00006E08148006820F400507E4BC3F8840047
:1037000012E039B17C48006840F40000794BC3F8FE
:10371000840006E07848006820F40000754BC3F888
:10372000840001E00020704700BF0120FBE7014654
:10373000002021B1012907D002290FD109E06F4AE9
:10374000126802F007000AE06C4A1268C2F3022015
:1037500005E06A4A1268C2F3024000E000BF00BF01
:1037600070476748006870476549096841EA000189
:10377000604AC2F8801070476148006810F0004F3E
:1037800001D0012070470020FCE75D48006810F080
:10379000080F01D0012070470020FCE7024609B95C
:1037A0000020704722B1012A1ED0022A54D137E0EE
:1037B0005348006810F0010F01D10020F1E7514893
:1037C000006800F03F0008604E480068C0F38510B4
:1037D00048604C480068C0F304308860494800687D
:1037E000C0F34840C86038E04548006810F0020F58
:1037F00001D10020D5E74448006800F03F00086090
:1038000041480068C0F3851048603F480068C0F335
:10381000043088603C480068C0F34840C8601CE041
:103820003748006810F0040F01D10020B9E737488D
:10383000006800F03F00086034480068C0F385105D
:10384000486032480068C0F3043088602F48006840
:10385000C0F34840C86000E000BF00BF0120A0E7FF
:10386000024609B90020704722B1012A1ED0022A5F
:1038700067D137E02248006810F0010F01D1002025
:10388000F1E72348006800F03F0008602048006826
:10389000C0F3851048601E480068C0F3043088609B
:1038A0001B480068C0F34840C8604BE014480068FB
:1038B00010F0020F01D10020D5E71648006800F093
:1038C0003F00086013480068C0F385104860114845
:1038D0000068C0F3043088600E480068C0F34840B8
:1038E000C8602FE00648006810F0040F14D10020D3
:1038F000B9E7000000400240844002408840024096
:103900008040024090400240944002409840024073
:10391000A0400240A44002400C48006800F03F0074
:1039200008600A480068C0F38510486007480068CE
:10393000C0F30430886005480068C0F34840C860A0
:1039400000E000BF00BF01208DE70000A84002405A
:10395000411CC8B2704710B58CB0002009900A9085
:103960000B9026200121002807DACA06140E374AD8
:1039700000F00F031B1FD45403E0CA06130E344A91
:10398000135400BF262000F055F8FDF714F9FCF79A
:10399000F5FE1A2000F04EF80A2001902320029034
:1039A0001720039001A803F030FBFCF785FE03F01D
:1039B000D9FD0CB010BD10B560B95AB9254B1B68C4
:1039C0004FF0010404FA01F423EA0403224CC4F882
:1039D00090302EE002280CD15AB9204B1B684FF0D2
:1039E000010404FA01F423EA04031B4CC4F8B030C8
:1039F0001FE060B9012A0AD1194B1B68144604FA6A
:103A000001F423EA0403144CC4F8943011E00228B2
:103A10000DD1012A0BD1134B1B684FF0010404FA9E
:103A200001F423EA04030C4CC4F8B43001E000BFF5
:103A3000FEE710BD00F01F020121914042094FF046
:103A4000E02303EB8202C2F80011704718ED00E09A
:103A500000E400E09080024000800240B08002401C
:103A600094800240B480024000204549088070479D
:103A70007047704770477047704770B504461046EE
:103A80004FF080750560051F28462C603D4E051FD0
:103A900028462E604FF01236051F28462E604FF044
:103AA0000336051F28462E604FF00236051F2846B4
:103AB0002E607610051F28462E60051F28462960B7
:103AC0004FF01136051F28462E604FF01036051FA7
:103AD00028462E604FF00936051F28462E604FF00D
:103AE0000836051F28462E604FF00736051F28466A
:103AF0002E604FF00636051F28462E604FF0053623
:103B0000051F28462E604FF00436051F28462E60FC
:103B100070BD7047704710B519480088401C18499F
:103B2000088008460088642803D30020088002F03B
:103B3000FFFE10BD10B503F0C3FE04461248007826
:103B4000401C11490870204603F0BEFE00F02AFC1C
:103B500000F077FB10BD411E4FF0E0225161FF21C4
:103B60000A4A11704FF0E021096941F005014FF058
:103B7000E02211611146096941F0020111617047AB
:103B8000E8000010A56200000501001023ED00E030
:103B9000F0B5024612F8384F95785678A2F13802FF
:103BA0000B4618680FE000F10B073F5DB74300F1CB
:103BB0000B0C0CF8047067463F5D17B9877AAF436A
:103BC00087721B1D18680028EDD1F0BDFD49FE4A23
:103BD0001278885CFD49095CFA4A515C01EBC0012E
:103BE000FB4A1170704710B5002403F069FE0446CB
:103BF000F8480078F8B9F8480078E0B9FFF7E6FF30
:103C0000F648F349097850F82100F5490860F04872
:103C10000078F449097888420DD0F1480068C06BFB
:103C2000401CEF490968C863EF480068401CEE4932
:103C3000086003F05CFE204603F046FE10BD70B540
:103C400001460024E94D2D68EC61E84C24682162AE
:103C50000B4618681BE0E54C246894F8385000F1D6
:103C60000B04645DE14D2D6895F839502C43DF4D10
:103C70002D6895F8386000F10B05AC55847ADB4D62
:103C80002D6895F83A502C4384721B1D1868002843
:103C9000E1D1D64C246894F83820CC4CA45CD34DA8
:103CA0002D6895F83950AC43C84DAC542C46A45CF3
:103CB00044B9CE4C246894F83A50C34C2478AC43B1
:103CC000C14D2C7070BD2DE9FF4F83B083460E4669
:103CD0001546DDF84080002000903060D946D9F8C4
:103CE000004018E02078062807D2DFE800F006043C
:103CF000050307080AE009E008E000BF00BF012053
:103D000088F80000002007B0BDE8F08F00BF09F17F
:103D10000409D9F80040002CE4D1AE48007820B165
:103D2000022088F800000020EDE7AB48007820B1C1
:103D30000D2088F800000020E5E703F0C1FD0090A9
:103D40000020029082460190D946D9F800405DE0FB
:103D50002078062849D2DFE800F048172A03494AAC
:103D6000208960B12089401E208110C60120029068
:103D7000002001C50AF101001FFA80FA03E0019852
:103D800040F0010001903CE0606858B1606801C5F6
:103D90000020606010C6012002900AF101001FFAA5
:103DA00080FA03E0019840F00200019029E0676882
:103DB000F88AA8B13969081D3861086801C5B96871
:103DC0003869884201D178683861F88A401EF882E3
:103DD00010C6012002900AF101001FFA80FA03E0E8
:103DE000019840F0040001900BE000BF00BF009874
:103DF00003F06AFD00203060012088F80000504682
:103E000081E700BF09F10409D9F80040002C9FD1D7
:103E10000298012809D100203060009803F054FD79
:103E2000002088F8000050466DE77048006890F860
:103E30003400019941F0800108436C49096881F818
:103E4000340000206949096881F8350067490698FF
:103E5000096808635846FFF7F2FE009803F034FD46
:103E6000FFF7C1FE03F02CFD00906048006890F859
:103E7000350020B101281BD0022818D100E000BF76
:103E80005A480068C4693CB110C6002030600AF18D
:103E900001001FFA80FA09E001205449096881F8FD
:103EA0003500594651480068FFF772FE06E000BF32
:103EB00059464E480068FFF76BFE00BF00BF4B48F5
:103EC000006890F8350020B101282BD0022828D1B5
:103ED00021E0207806280DD2DFE800F00C06070369
:103EE0000D0E002001C511E000BF40480068406A87
:103EF00001C50BE000BF00BF009803F0E5FC002007
:103F00003060012088F800005046FCE600BF002029
:103F100088F800000CE0002001C50E2088F80000A1
:103F200006E000BF002001C50A2088F8000000BF9D
:103F300000BF00202D49096881F834002B49096829
:103F400081F8350029490968C8612849096808626B
:103F5000264909684862009803F0B6FC5046D2E64C
:103F60007CB5002514E06946284602F0A7F806460D
:103F700066B91A4850F8254044B1012C06D0D4E95E
:103F8000020100EB8100A0640198E064681CC5B2E6
:103F90003F2DE8D97CBD002400BF02E0C82002F01C
:103FA00097F9134800780028F8D012480068642177
:103FB000B0FBF1F00F4908600846006810BB002014
:103FC0000D491BE0BC790000090100100A01001036
:103FD00008010010050100100601001084090010FE
:103FE0002001001007010010EC0000101801001063
:103FF00004010010FC000010F80000100870FF2001
:1040000002F09EF800BF03F05BFC0446F74800682E
:10401000F74908600020F5490860204603F054FC89
:10402000F3480068F3490968B0FBF1F0C0F164009F
:10403000F1490870FFF720FDFFF792FF642002F0BE
:1040400047F9E0E700B587B0032000214022EB4BA1
:10405000CDE90132CDE903104FF6FE703E23E74A69
:10406000FC320090AFF2D10001F037FE06AAE4A1C5
:104070003E2001F0A2FF07B000BD002400BF00BF3A
:1040800003F01EFC0446D9480068401CD74908606C
:10409000204603F019FCFFF7EEFCF1E700B587B00E
:1040A000032000212022DA4BCDE90132CDE90310B3
:1040B0004FF6FF703F23D64A7C320090AFF24500A6
:1040C00001F00BFE06AAD3A13F2001F076FF07B056
:1040D00000BD04E0002200F8012B4A1E91B2002925
:1040E000F8D1704770B54FF47A71CE48FFF7F1FF01
:1040F00000230FE0581C85B203EB8300C94901EB94
:10410000800405EB850001EB8006002020706660CE
:10411000581C83B2312BEDD303EB8300C14901EB73
:1041200080040020207060600846BF49086070BDB0
:1041300070B54FF4F261BD48FFF7CBFF4FF48071CB
:10414000BB48FFF7C6FF002413E0601CC5B204EBB8
:10415000440000EBC400B54901EBC00305EB45008A
:1041600000EBC50001EBC0065E61B2A01865601CE3
:10417000C4B2152CE9D304EB440000EBC400AB49F6
:1041800001EBC00300205861AAA018650020AA49CD
:104190000860A648A949086070BD0021A84A1170AE
:1041A000002004E00021A74A1154411CC8B208288D
:1041B000F8D30021A44A1170A44A1170A44A1160D6
:1041C000A44A116070470020A3490860A349087001
:1041D000A3490870A3490870A3490870A34908605F
:1041E000824908608249086082490860A0490870D5
:1041F000704710B5FFF738FCFFF7E5FFFFF7CDFF7D
:10420000FFF796FFFFF76EFF00F0BBFE00F0ADFF7B
:1042100001F0A9FAFFF742FFFFF714FF02F0E3FBFA
:10422000FFF726FC10BD90480078012808D18B4884
:104230000078FF2804D289480078401C874908701C
:10424000704710B5002488480078012830D103F069
:1042500037FB04468148007820B180480078401E32
:104260007E4908707D480078F8B97D480078E0B94B
:10427000FFF7ACFC6E487549097850F82100744985
:104280000860724800787049097888420DD07048FB
:104290000068C06B401C6E490968C86373480068B9
:1042A000401C7249086003F027FB204603F00CFB1A
:1042B00010BD10B500246C480078012811D103F01E
:1042C000FFFA04466548007840B965480078FF2841
:1042D00004D263480078401C61490870204603F00E
:1042E000F3FA10BD10B500245F480078012821D1F1
:1042F00003F0E6FA04465A480078C0B158480078FE
:10430000401E574908700846007860B95348007845
:1043100028B9204603F0D8FAFFF765FC0AE02046EA
:1043200003F0D2FA06E0204603F0CEFA02E020467F
:1043300003F0CAFA10BD10B54B48007890B9FFF7EA
:1043400045FC424800784049087039483F4909789F
:1043500050F821003E490860084600683D49086061
:1043600003F0B5FA10BD10B50024022001F0B0FF33
:1043700003F0A6FA044600201C490860204603F01A
:10438000A3FA642001F0A4FF03F09AFA0446174848
:10439000006818490860012035490870204603F07C
:1043A00093FA10BD70B50026FFF7B5FB03F088FA4D
:1043B000064629480068401C27490860304603F03B
:1043C00083FA2948007801287AD12A48007820B158
:1043D000012804D002284FD103E0012551E0002537
:1043E0004FE001250120234908704AE01401001024
:1043F00000010010FC000010F8000010040800107C
:1044000075432F4F532D49492053746174000000A8
:104410000409001075432F4F532D49492049646CFE
:1044200065000000DC020010F0000010840A00109B
:10443000840900103F000000240100101C0100103E
:10444000090100100A010010070100100801001006
:1044500020010010180100103401001005010010A7
:10446000060100101301001012010010EC000010F2
:10447000040100102801001001250020C84908701F
:1044800000BF00BF05B970BDC648046838E003F03E
:1044900017FA0646206B78B3206B401E2063206B12
:1044A00050BB94F8340010F0370F0AD014F8340FD2
:1044B00000F0C800207001206070A4F1340403E013
:1044C00022E0002084F8350094F8340010F0080F42
:1044D00012D104F13804A078B349097840EA010008
:1044E000B14908702078B149085C617840EA010060
:1044F00014F83819AD4A50546469304603F0E4F9B1
:1045000094F836003F28C2D100BFBCE740F2231028
:104510007047704710B590F8382001F10B039B5C91
:1045200090F83940A34301F10B04A35423469B5C4C
:1045300023B98B7A90F83A40A3438B7210BD2DE9D2
:10454000F04F05460F4690469946A87A98490E5C6A
:1045500005F10B00805D11F800B00BEBC60000F018
:10456000FF0A944850F82A40002004F12404E06037
:104570002760207C20EA0800207484F81190207CB9
:10458000A4F1240410F0080F0DD194F83A008649E4
:1045900009780843844908708448805D94F839108C
:1045A00008438249885529462046FFF7B3FF206A11
:1045B00020B12046216AFFF7EBFAE5615046BDE8DD
:1045C000F08F10B57C4A1268D0617B4A126892F86D
:1045D000383000F10B02D25C774B1B6893F839300E
:1045E0001A43754B1B6893F8384000F10B031A55BA
:1045F000827A714B1B6893F83A301A4382726E4A82
:10460000126892F83810694A525C6B4B1B6893F839
:1046100039309A43654B5A541A46525C42B9664A3D
:10462000126892F83A30604A12789A435E4B1A70D8
:1046300010BD014600228A72002005E0002301F12E
:104640000B021354421CD0B20828F7D3704705E080
:1046500011F8013B00F8013B531E9AB2002AF7D132
:1046600070470146002002E0491C421CD0B20A7883
:10467000002AF9D170472DE9F84F05460F469046BC
:104680009946DDE90AAB0020009003F019F900908B
:104690004A480468002C7DD004F11C0454F8080C2E
:1046A00046490860009803F00FF944F81C7CA57691
:1046B000002020766076606144F818BC44F810ACA5
:1046C00044F8148C0C9824F80C0C24F80A9C002054
:1046D000E077E810207705F00700E076217F0120E1
:1046E0008840A077E17E012088406077002020602C
:1046F0006060E060A0602062A0626062E0622063AF
:10470000AFF2D0206063A4F11C044FF0000606E075
:10471000002104F1540040F82610701CC6B2002E8F
:10472000F6D02046FFF7F6F92046FFF7A2F903F08E
:10473000C7F800901F4840F825401A48006860619B
:104740000020A0611748006810B116480068846115
:104750001448046004F13804A0781349097840EA49
:1047600001001149087020781049085C617840EA1E
:10477000010014F838190D4A50541148007800F11E
:1047800001000F490870009803F09EF80020BDE872
:10479000F88FFFE7009803F097F84220F7E7000052
:1047A0002801001024010010090100100A01001066
:1047B000BC79000084090010180100101C010010D1
:1047C000130100102DE9F05F04460F4691461E4686
:1047D0004FF0000B2078052804D001203070002015
:1047E000BDE8F09F09F0800ABAF1000F04D029F06B
:1047F00080094FF0010801E04FF000080020307000
:1048000003F05EF88346B9F1000F2CD0B9F1010F27
:104810003BD0B9F1020F03D0B9F1030F46D111E03B
:10482000208900EA0705BD4206D1B8F1010F05D184
:104830002089A843208101E070203070584603F0A1
:1048400043F83AE0208900EA070535B1B8F1010FD5
:1048500005D12089A843208101E07020307058469E
:1048600003F032F829E0208927EA0005BD4206D18D
:10487000B8F1010F05D120892843208101E0702083
:104880003070584603F020F817E0208927EA000529
:1048900035B1B8F1010F05D120892843208101E00D
:1048A00070203070584603F00FF806E0584603F0C9
:1048B0000BF800256F20307000BF00BF28468FE73F
:1048C0002DE9F04106460D460027FD48007820B14D
:1048D000102028700020BDE8F08102F0F1FF0746AB
:1048E000F848046884B100684068F649086005200B
:1048F0002070268100206060F3A0E060384602F05E
:10490000E3FF0020287004E0384602F0DDFF72204B
:1049100028702046DFE730B501464A6808682AB9A2
:10492000CC68606028B10025456002E0106000B1ED
:1049300042608B6800259D6230BDF0B506460F468B
:10494000B468002004F12C0460602780207A00F015
:10495000DF0020724FF000006072207AA4F12C0476
:10496000A8B904F13804A078D849097840EA0100D0
:10497000D64908702078D649085C617840EA010081
:1049800014F83819D24A50544FF0010500E00025C0
:104990003046FFF7C0FF2846F0BD2DE9F04704463A
:1049A000894615464FF0000AC548007820B10F200F
:1049B00028702046BDE8F0872078052803D0012024
:1049C00028702046F6E702F07BFF8246606808B157
:1049D000012700E00027B9F1000F03D0B9F1010F62
:1049E0003CD119E08FB9B8A0E06000202070B54834
:1049F0000068606000202081B2480460504602F0E8
:104A000063FF00202870002605E0504602F05CFF9E
:104A100049202870264628E0D4F8048005E00021CB
:104A20004046FFF78AFFD8F80080B8F1000FF6D1B2
:104A3000A5A0E06000202070A2480068606000200F
:104A40002081A0480460504602F03EFF012F01D1B2
:104A5000FFF7C9F800202870002606E0504602F053
:104A600033FF07202870264600BF00BF3046A1E76D
:104A70002DE9F04105460E4614460027904800787F
:104A800020B1112020700020BDE8F08102F018FF55
:104A900007462878052806D0384602F015FF012081
:104AA00020700020F0E7E86830603068FFF7D9FD3B
:104AB0008046384602F008FF002020704046E3E7B9
:104AC0002DE9F04105460E46144600277C48007843
:104AD00018B112202070BDE8F08102F0F1FE074607
:104AE0002878052805D0384602F0EEFE0120207017
:104AF000F1E7EE60384602F0E7FE0020207000BFCC
:104B0000E9E7F0B51446059E724F3F6897F8347098
:104B100047F02007DFF8BCC1DCF800C08CF8347027
:104B20000027DFF8B0C1DCF800C08CF83570694FA1
:104B30003F683E63674F3F68B9620C828B74654F74
:104B40003F688F6047680F6000274F60C860456806
:104B500005B1696041605F4F3F6897F838205C4F4E
:104B6000BF5CDFF870C1DCF800C09CF839C027EAF0
:104B70000C07DFF85CC10CF802706746BF5C5FB9D8
:104B8000544F3F6897F83AC0504F3F7827EA0C07D8
:104B9000DFF838C18CF80070F0BD2DE9F04F89B016
:104BA00005460F4691469A46129E002002904448C0
:104BB000007828B102203070002009B0BDE8F08FE5
:104BC0004548007818B10D2030700020F5E72878AE
:104BD000052803D0012030700020EEE709F0800B9B
:104BE000BBF1000F04D009F07F094FF0010801E08C
:104BF0004FF0000802F064FE0290B9F1000F4AD0B5
:104C0000B9F1010F78D0B9F1020F03D0B9F1030F58
:104C100071D120E0288900EA0704BC420FD1B8F125
:104C2000010F02D12889A04328812A480068848581
:104C3000029802F049FE002030702046BDE74B4646
:104C40003A4604A92846CDF800A0FFF75AFF02987B
:104C500002F03AFE78E0288900EA07047CB1B8F156
:104C6000010F02D12889A04328811A480068848551
:104C7000029802F029FE0020307020469DE74B4646
:104C80003A4604A92846CDF800A0FFF73AFF02985B
:104C900002F01AFE58E0288927EA0004BC421ED11F
:104CA000B8F1010F02D12889204328810948006802
:104CB0008485029802F008FE0020307020467CE7D0
:104CC00005010010F40000103F0000000901001071
:104CD0000A01001018010010060100100CE04B46FC
:104CE0003A4604A92846CDF800A0FFF70AFF02982B
:104CF00002F0EAFD28E01FE0288927EA00047CB1E1
:104D0000B8F1010F02D1288920432881B1480068F9
:104D10008485029802F0D8FD0020307020464CE7D0
:104D20004B463A4604A92846CDF800A0FFF7E9FE15
:104D3000029802F0C9FD07E0029802F0C5FD0024C8
:104D40006F203070204638E700BFFEF74CFF02F0BE
:104D5000B7FD02909F48006890F8350020B39D4849
:104D6000006890F83500039000209A49096881F89E
:104D7000350004A8FFF7CFFD00209649096881F8A7
:104D80003400029802F0A0FD00240398012805D009
:104D9000022802D10E20307003E000BF0A203070DC
:104DA00000BF00BF204608E78A480068848DB8F13C
:104DB000010F1ED1B9F1000F0ED0B9F1010F0CD0C7
:104DC000B9F1020F03D0B9F1030F0AD100E000BF1F
:104DD0002889A04328810BE000BF2889204328812F
:104DE00006E0029802F070FD6F2030700020E4E6CB
:104DF00000BF029802F068FD002030702046DCE61B
:104E000070B5002502F05CFD054672480068848D8F
:104E1000284602F059FD204670BD2DE9FC5F04468E
:104E2000894692461E46002000902078052804D02E
:104E3000012030700020BDE8FC9F02F041FD009091
:104E4000BAF1000F03D0BAF1010F0AD104E02089B2
:104E500020EA090020810BE0208940EA0900208136
:104E600006E0009802F030FD712030700020E2E78B
:104E700000BF4FF0000B656855E0A87C40B30128E7
:104E800038D0022802D0032844D111E02089298A91
:104E900000EA0107288AB84209D139462846FFF7B7
:104EA0004CFD8046B8F1010F01D14FF0010B38E005
:104EB0002089298A00EA01074FB139462846FFF7C1
:104EC0003CFD8046B8F1010F01D14FF0010B28E005
:104ED000288A218920EA0107288AB84209D139465F
:104EE0002846FFF72AFD8046B8F1010F01D14FF0A7
:104EF000010B16E0288A218920EA01074FB13946C3
:104F00002846FFF71AFD8046B8F1010F01D14FF096
:104F1000010B06E0009802F0D7FC6F2030700020F3
:104F200089E700BF2D68002DA7D1009802F0CCFCC6
:104F3000BBF1010F01D1FEF756FE02F0C1FC00905B
:104F400020890190009802F0BFFC00203070019889
:104F500071E72DE9F04104460D4600272078052829
:104F600004D0012028700020BDE8F08102F0A8FCE8
:104F700007462689384602F0A7FC002028703046F4
:104F8000F2E72DE9F0414FF4A0711348FFF7A1F8C3
:104F900000250EE0681C86B20F4800EB051400EBFC
:104FA0000617002020706760AFF2E420E060681C04
:104FB00085B2132DEED3084800EB051400202070B5
:104FC0006060AFF2FC20E060034804490860BDE87F
:104FD000F081000018010010C4060010F400001059
:104FE0002DE9FC5F05460F4691469A460020009049
:104FF00002F066FC009070480468006820B16E48BA
:10500000006840686C490860009802F05DFC2CB9AB
:105010005A208AF800000020BDE8FC9FA8462E46D2
:10502000781E01904FF0000B05E04E44C8F8006078
:10503000B0460BF1010B01988345F6D30020C8F868
:105040000000256065602761E760C4F808908AF871
:1050500000002046E0E72DE9F04104460D46002718
:1050600002F02EFC0746206968B16668306860600F
:105070002069401E2061384602F026FC002028707E
:105080003046BDE8F081384602F01EFC5D202870F5
:105090000020F6E72DE9F04106460C4615460027AC
:1050A0004648007820B1112028700020BDE8F0812A
:1050B00002F006FC0746706920602068FFF7D1FA0D
:1050C0008046384602F000FC002028704046EDE79C
:1050D0002DE9F04105460E46144600273748007872
:1050E00018B112202070BDE8F08102F0E9FB0746FC
:1050F0006E61384602F0E8FB0020207000BFF2E746
:1051000070B504460D46002602F0DAFB0646D4E9E7
:105110000310884204D3304602F0D6FB5E2070BDF7
:105120006068286065602069401C2061304602F09C
:10513000CBFB0020F3E770B505460C46002602F0D5
:10514000BFFB06462868206068686060A868A060A9
:10515000E868E06028692061304602F0B5FBD4E9D8
:105160000301401A6061002070BD70B54FF4F0710A
:105170001348FEF7AEFF00240EE004EB4400104994
:1051800001EBC005601C00EB400001EBC000686053
:105190000CA06861601C84B2132CEED304EB4400B5
:1051A000074901EBC0050020686006A06861084659
:1051B0000149086070BD00002C01001005010010BD
:1051C000141200103F0000002DE9F04106460D4684
:1051D0004FF000083078022804D001202870002009
:1051E000BDE8F08102F06CFB80467468E08A78B11B
:1051F0002169081D20610F68E08A401EE082A168D5
:105200002069884201D1606820610020287002E096
:105210001F2028700027404602F056FB3846DFE783
:105220002DE9F04106460F464FF00008F948007896
:1052300010B10020BDE8F08102F042FB8046F64844
:105240000568006820B1F44800684068F2490860C9
:10525000404602F039FB3DB302F032FB8046EF4896
:105260000468C4B100680068EC490860404602F078
:105270002BFB666006EB8700A060E6602661A782D4
:105280000020E08202202870002028816C602846DF
:10529000FFF7CFF908E0E04800686860DE48056085
:1052A000404602F011FB00252846C3E72DE9F047F0
:1052B0000446894615464FF0000A2078022804D09B
:1052C000012028702046BDE8F087D248007818B148
:1052D0000F2028702046F6E702F0F2FA8246A07A04
:1052E00010B14FF0010801E04FF00008B9F1000FD4
:1052F00003D0B9F1010F45D11FE0B8F1000F15D16E
:105300006668C64800683060C448066000202070A7
:10531000C1480068606000202081BF48046050469A
:1053200002F0D2FA00202870002705E0504602F073
:10533000CBFA4920287027462BE005E00023042201
:1053400019462046FFF7FBF8A07A0028F6D16668D8
:10535000B24800683060B148066000202070AE4856
:105360000068606000202081AB480460504602F075
:10537000ABFAB8F1010F01D1FEF735FC002028701F
:10538000002706E0504602F09FFA072028702746C3
:1053900000BF00BF384696E770B50546002602F00C
:1053A0008FFA06466C686068E060606820610020E3
:1053B000E082304602F088FA002070BD2DE9F04707
:1053C0000746884615464FF000093878022804D071
:1053D000012028700020BDE8F0878E48007818B1C1
:1053E000022028700020F6E78D48007818B10D20C3
:1053F00028700020EFE702F063FA81467C68E08ABB
:1054000098B12169081D20610E68E08A401EE08283
:10541000A1682069884201D160682061484602F095
:1054200053FA002028703046D5E77E48006890F88F
:10543000340040F004007B49096881F83400002002
:105440007849096881F8350076480068C0F83080EE
:105450003846FFF7B6F8484602F036FAFEF7C3FBC7
:1054600002F02EFA81466F48006890F8350020B1AE
:1054700001280DD002280AD105E06A480068466A72
:10548000002028700DE000260E20287009E000BFE3
:10549000394664480068FFF73DF800260A20287066
:1054A00000BF00BF00205F49096881F834005D49F2
:1054B000096881F835005B490968C861594909687C
:1054C0000862584909684862484602F0FDF93046CA
:1054D00081E72DE9F04104460F4615464FF00008DC
:1054E0002078022804D0012028700020BDE8F08137
:1054F00002F0E6F98046A07A20B300267FB1012FA2
:105500000CD107E00223042200212046FFF717F800
:10551000701CC6B2A07A0028F4D109E000BF0223B3
:10552000042200212046FFF70AF8701CC6B200BF13
:1055300000BF404602F0C8F9FEF755FB0E20287068
:105540003046D3E7404602F0BFF90020287000BF84
:10555000CCE72DE9F04105460E46002728780228C1
:1055600002D00120BDE8F08102F0AAF90746A87A2E
:1055700060B10023042231462846FEF7E0FF38469A
:1055800002F0A2F9FEF72FFB0020EBE76C68E08A3F
:10559000A18A884204DB384602F096F91E20E1E732
:1055A000E168081DE0600E60E08A401CE082D4E9FA
:1055B0000210884201D16068E060384602F084F948
:1055C0000020CFE72DE9F04105460E460027287858
:1055D000022802D00120BDE8F08102F071F90746EF
:1055E000A87A60B10023042231462846FEF7A7FFBF
:1055F000384602F069F9FEF7F6FA0020EBE76C682E
:10560000E08AA18A88420FDB384602F05DF91E204D
:10561000E1E7000005010010F0000010300100106B
:10562000060100101801001061682069884201D14C
:10563000A06820612069001F206120690660E08A5F
:10564000401CE082384602F03FF90020C3E72DE914
:10565000F04105460F4616464FF00008287802280C
:1056600002D00120BDE8F08102F02AF98046A87A34
:10567000E8B116F0010F0AD005E0002304223946F4
:105680002846FEF75CFFA87A0028F6D105E0002343
:10569000042239462846FEF752FF404602F014F92C
:1056A00016F0040F01D1FEF79EFA0020DAE76C68CD
:1056B000E08AA18A884204DB404602F005F91E20F8
:1056C000D0E716F0020F0BD061682069884201D143
:1056D000A06820612069001F20612069076009E03F
:1056E000E168081DE0600F60D4E90210884201D132
:1056F0006068E060E08A401CE082404602F0E4F826
:105700000020AFE72DE9F04705460C464FF0000AB0
:105710002878022802D00120BDE8F08702F0D0F8F6
:105720008246A87A207405F10B0804F108090027C5
:1057300005E018F8010B09F8010B781CC7B2082F17
:10574000F7D36E68F08A18B130690068206001E014
:1057500000202060F08AA080B08AE080504602F0ED
:10576000B3F80020D8E72DE9F0414FF4F07110486C
:10577000FEF7AFFC00240DE0601C86B204EB440091
:105780000B4901EBC00506EB460001EBC0072F609B
:10579000601C84B2132CEFD304EB4400044901EBEA
:1057A000C00500202860084602490860BDE8F08175
:1057B000F41300103001001070B505460026B448FF
:1057C000007808B1002070BD02F07AF80646B148B2
:1057D0000468006820B1AF4800684068AD490860BF
:1057E000304602F071F83CB1032020702581002082
:1057F00060602046FEF71DFF2046E4E72DE9F047F4
:105800000446884615464FF000092078032804D046
:10581000012028702046BDE8F0879D48007818B127
:105820000F2028702046F6E702F04AF88146A07A59
:1058300008B1012700E00027B8F1000F03D0B8F14C
:10584000010F35D117E07FB9002020709148006822
:105850006060002020818F480460484602F034F8E0
:1058600000202870002605E0484602F02DF8492067
:105870002870264623E005E0002301221946204631
:10588000FEF75DFEA07A0028F6D1207081480068FE
:105890006060002020817F480460484602F014F8D0
:1058A000012F01D1FEF79FF900202870002606E0A5
:1058B000484602F009F807202870264600BF00BFBE
:1058C0003046A8E72DE9F04105460E46144600276C
:1058D0002878032803D001202070BDE8F0816C48AF
:1058E000007810B102202070F7E76B48007810B103
:1058F0000D202070F1E701F0E3FF0746288940B151
:105900002889401E2881384601F0DEFF00202070E3
:10591000E3E76248006890F8340040F001005F4916
:10592000096881F8340000205C49096881F8350075
:105930005A48006806632846FEF743FE384601F0E1
:10594000C3FFFEF750F901F0BBFF0746534800685C
:1059500090F8350020B1012809D0022806D102E0D4
:10596000002020700BE00E20207008E000BF2946C8
:105970004A480068FEF7CEFD0A20207000BF00BF35
:1059800000204649096881F834004449096881F8D3
:10599000350042490968C8614049096808623846CB
:1059A00001F092FF00BF98E770B50446002520780B
:1059B000032801D0012070BD01F082FF0546A07AC6
:1059C00060B10023012219462046FEF7B8FD2846A3
:1059D00001F07AFFFEF707F90020ECE720894FF687
:1059E000FF71884207D22089401C2081284601F09F
:1059F0006BFF0020DFE7284601F066FF3320DAE77F
:105A00002DE9F04704460D464FF0000920780328A1
:105A100002D00120BDE8F08701F052FF8146A07A54
:105A2000A87204F10B0705F10208002605E017F83B
:105A3000010B08F8010B701CC6B2082EF7D32089A1
:105A40002880484601F040FF0020E3E72DE9F041BF
:105A500004460E46154600272078032803D001206F
:105A60002870BDE8F08101F02BFF07460020287068
:105A7000208908B1268105E0A07A08B9268101E0D5
:105A800049202870384601F01FFF00BFE9E70000F9
:105A900005010010F00000100601001018010010B0
:105AA0002DE9F34F85B088460020019001F008FFF2
:105AB0000190FE4850F8280030B1019801F004FF31
:105AC000282007B0BDE8F08F0598FF2804D1F848DA
:105AD000006890F836000590F449059851F8205078
